:020000040800F2
:10000000000002205D03000859030008ED5C0008B1
:1000100059030008590300085903000800000000B4
:10002000000000000000000000000000590300086C
:10003000590300080000000059030008715C000823
:100040005903000859030008590300085903000820
:100050005903000859030008590300085903000810
:10006000590300085903000859030008115A0008F1
:100070001D5A000859030008295A0008355A00087B
:1000800021F60008ED4E0008590300085903000846
:1000900059030008590300085903000859030008D0
:1000A00059030008590300085903000859030008C0
:1000B0000DEA000819EA000825EA00081D4F0008AB
:1000C00059030008294F000859030008C9E2000835
:1000D000D5E2000831F4000861F4000899F4000842
:1000E00059030008590300080000000059030008E4
:1000F0005903000859030008590300085903000870
:10010000590300085903000831EA0008E1E2000839
:10011000D1F4000809F50008A144000859030008BB
:10012000894400089544000805E3000839E3000805
:1001300055F6000859030008590300085903000840
:1001400000000000000000000000000000000000AF
:1001500059030008590300085903000841F5000835
:10016000354F000859030008815C0008A55C0008B1
:1001700059030008C95C0008590300085903000826
:10018000590300085903000879F50008B1F5000883
:10019000EDE20008F9E200085903000859030008DD
:1001A00059030008590300085903000859030008BF
:1001B000895600085903000859030008590300082C
:1001C000590300085903000859030008590300089F
:1001D000590300085903000859030008590300088F
:1001E000590300085903000859030008590300087F
:1001F000590300085903000859030008590300086F
:10020000590300085903000859030008590300085E
:10021000590300085903000859030008590300084E
:1002200059030008590300085903000800000000A2
:100230005903000859030008000000005903000892
:10024000590300085903000859030008590300081E
:10025000590300085903000859030008590300080E
:1002600059030008590300085903000859030008FE
:100270005903000859030008E9F5000800000000D0
:100280005903000859030008590300080000000042
:08029000000000005903000802
:1002980053B94AB9002908BF00281CBF4FF0FF31E5
:1002A8004FF0FF3000F00CB8ADF1080C6DE904CE4A
:1002B80012F004FEDDF804E0DDE9022304B0704723
:1002C800704700BF0348044B834202D0034B03B17D
:1002D80018477047CC030024CC030024000000001A
:1002E8000548064B1B1AD90F01EBA301491002D090
:1002F800034B03B118477047CC030024CC030024F8
:100308000000000010B5064C237843B9FFF7DAFF68
:10031800044B13B10448AFF300800123237010BDD0
:10032800D003002400000000E857010808B5054B79
:100338001BB105490548AFF30080BDE80840FFF749
:10034800CFBF00BF00000000D4030024E857010815
:10035800FEE700BF0B480C4A904203D0121A0B4923
:1003680012F054FD0A480B4A904203D0121A002199
:1003780012F0C4FC05F00EFF12F022FD02F0E4F8C2
:10038800FEE700BF00000024CC0300241858010831
:10039800D0030024C8310024704700BF00000000CB
:1003A8009FED010B704700BF000000000000000037
:1003B8009FED091B08B511F033FA9FED097B20EE7C
:1003C800070B11F0D9F89FED086B9FED097B20EE24
:1003D800060B20EE070B08BDCC47B075C243F13FB2
:1003E8009EC5BAD77C1FE1BF27182E3090E09F40EA
:1003F8002E153868C70F403F9FED091B08B511F04F
:100408000FFA9FED097B20EE070B11F0B5F89FED71
:10041800086B9FED097B20EE060B20EE070B08BD4D
:10042800EC2EFE5604EAF13FD6C244A62078DBBF84
:10043800450B8FB5FBCF9A402E153868C70F403F44
:100448009FED091B08B511F0EBF99FED097B20EE34
:10045800070B11F091F89FED086B9FED097B20EEDB
:10046800060B20EE070B08BDEA57C44DD762F03FD4
:1004780096328F9E3FF6E4BF60C000245CFB6E405E
:100488002E153868C70F403F9FED091B08B511F0BE
:10049800C7F99FED097B20EE070B11F06DF89FED72
:1004A800086B9FED097B20EE060B20EE070B08BDBD
:1004B800F54CC6C60D07EA3FF25B2E8CBA8DE8BF35
:1004C80096CA6F05A6C261402E153868C70F403F0F
:1004D8009FED091B08B511F0A3F99FED097B20EEEC
:1004E800070B11F049F89FED086B9FED097B20EE93
:1004F800060B20EE070B08BDB4E7710C43E5EF3F90
:10050800A926FFB66255E9BFBEF455219B13644086
:100518002E153868C70F403F9FED091B08B511F02D
:100528007FF99FED097B20EE070B11F025F89FED71
:10053800086B9FED097B20EE060B20EE070B08BD2C
:10054800519EFA1F0E8EF13FF68902B8AF47E2BFFF
:10055800612614FABE60A240B4FF29FC09DC3B3FC7
:100568009FED091B08B511F05BF99FED097B20EEA3
:10057800070B11F001F89FED086B9FED097B20EE4A
:10058800060B20EE070B08BD4FFAE99F363AEE3FFF
:10059800A884725DFEDBE6BFE91A67AD21AC934023
:1005A800B4FF29FC09DC3B3F9FED091B08B511F09E
:1005B80037F99FED097B20EE070B10F0DDFF9FED6B
:1005C800086B9FED097B20EE060B20EE070B08BD9C
:1005D8008B97DC485B71E93F6C8F286A34E5F1BF83
:1005E8004B7BC2876E335F40B4FF29FC09DC3B3F7D
:1005F8009FED091B08B511F013F99FED097B20EE5B
:10060800070B10F0B9FF9FED086B9FED097B20EEFB
:10061800060B20EE070B08BD60ED7A6786F2F03F07
:100628003ED67231737BDDBFE01DF14F68444B400D
:10063800B4FF29FC09DC3B3F9FED091B08B511F00D
:10064800EFF89FED097B20EE070B10F095FF9FED6B
:10065800086B9FED097B20EE060B20EE070B08BD0B
:1006680003D6BAB482CFEB3FA688102C7A9BF0BF92
:10067800AB383DE1C16E5440B4FF29FC09DC3B3F77
:100688009FED091B08B511F0CBF89FED097B20EE13
:10069800070B10F071FF9FED086B9FED097B20EEB3
:1006A800060B20EE070B08BD199F5B0926FDD93FF5
:1006B800E14262922F9505C06EC8303B888499400C
:1006C80055258D288310443F9FED091B08B511F06F
:1006D800A7F89FED097B20EE070B10F04DFF9FED6B
:1006E800086B9FED097B20EE060B20EE070B08BD7B
:1006F8002097A71B0E07EB3F6573C8D20C62F0BFAB
:10070800A7DFCCB08D6F994055258D288310443FC5
:100718009FED091B08B511F083F89FED097B20EECA
:10072800070B10F029FF9FED086B9FED097B20EE6A
:10073800060B20EE070B08BDAAD01AB8995FE53F53
:10074800C890C903DC49FABFA23094F527917640D6
:1007580055258D288310443F9FED091B08B511F0DE
:100768005FF89FED097B20EE070B10F005FF9FED6A
:10077800086B9FED097B20EE060B20EE070B08BDEA
:10078800EE94B3064E1EE83F85AAB9C7ABC8EFBFC3
:1007980078537F9FE878634055258D288310443F20
:1007A8009FED091B08B511F03BF89FED097B20EE82
:1007B800070B10F0E1FE9FED086B9FED097B20EE23
:1007C800060B20EE070B08BD1DA994A3DBE1E33F50
:1007D800188B368475B6FABF2A2B2A041319694078
:1007E80055258D288310443F9FED091B08B511F04E
:1007F80017F89FED097B20EE070B10F0BDFE9FED6B
:10080800086B9FED097B20EE060B20EE070B08BD59
:100818004F188F572DC0E53F83CCD3DEBF7AF2BF88
:10082800FA5BA42C5848824063B9BE52C52B413F9D
:100838009FED091B08B510F0F3FF9FED097B20EE33
:10084800070B10F099FE9FED086B9FED097B20EEDA
:10085800060B20EE070B08BDFE7733784EB5E23F56
:10086800E23F9D1D0D88FABFF0350A2558D19D40FD
:1008780063B9BE52C52B413F9FED091B08B510F067
:10088800CFFF9FED097B20EE070B10F075FE9FED63
:10089800086B9FED097B20EE060B20EE070B08BDC9
:1008A800D6C9EE638987E93F739B70C6AF59F2BF1B
:1008B800B08F13B9F69D5F4063B9BE52C52B413F57
:1008C8009FED091B08B510F0ABFF9FED097B20EEEB
:1008D800070B10F051FE9FED086B9FED097B20EE92
:1008E800060B20EE070B08BD2020E6EF8AEDE23F5D
:1008F800C8F85F3D7CCEF4BF9B0E281770DB6240C2
:1009080063B9BE52C52B413F9FED091B08B510F0D6
:1009180087FF9FED097B20EE070B10F02DFE9FED62
:10092800086B9FED097B20EE060B20EE070B08BD38
:10093800CD6716074D0BE33FD9FF59F62722FFBFB6
:10094800BBD893D6F796624063B9BE52C52B413FD8
:100958009FED091B08B510F063FF9FED097B20EEA2
:10096800070B10F009FE9FED086B9FED097B20EE49
:10097800060B20EE070B08BD0724674F74ECED3F0C
:1009880020F6488B4AD0E0BFBF09395C2E00924060
:10099800ABD8526F9CBD403F9FED091B08B510F0C6
:1009A8003FFF9FED097B20EE070B10F0E5FD9FED63
:1009B800086B9FED097B20EE060B20EE070B08BDA8
:1009C800A1A709135A0CE13F57F322F46C01FBBFAE
:1009D800664F9D578E959E40ABD8526F9CBD403F49
:1009E8009FED091B08B510F01BFF9FED097B20EE5A
:1009F800070B10F0C1FD9FED086B9FED097B20EE02
:100A0800060B20EE070B08BDB5A12E8DE797E83F32
:100A1800C53BE370637BEEBF2F8CB1E6655F834017
:100A2800ABD8526F9CBD403F9FED091B08B510F035
:100A3800F7FE9FED097B20EE070B10F09DFD9FED63
:100A4800086B9FED097B20EE060B20EE070B08BD17
:100A5800461FFFACDAD1E93FF4F2FE486277F1BFF6
:100A68005E8C75EA0D786640ABD8526F9CBD403FEE
:100A78009FED091B08B510F0D3FE9FED097B20EE12
:100A8800070B10F079FD9FED086B9FED097B20EEB9
:100A9800060B20EE070B08BDDE51B6AC5A5BE63FED
:100AA800919670E38501F9BFE225324FAB106D4096
:100AB800ABD8526F9CBD403F9FED091B08B510F0A5
:100AC800AFFE9FED097B20EE070B10F055FD9FED63
:100AD800086B9FED097B20EE060B20EE070B08BD87
:100AE8004B32795472D6ED3FB5D8783689B8E6BF1F
:100AF800E51093F80C62964077278DBADEDF463F03
:100B08009FED091B08B510F08BFE9FED097B20EEC9
:100B1800070B10F031FD9FED086B9FED097B20EE70
:100B2800060B20EE070B08BD44C3E060781EE43FC7
:100B380069A49DF85F06F4BFEA23B8BCBEF49440EC
:100B480077278DBADEDF463F9FED091B08B510F009
:100B580067FE9FED097B20EE070B10F00DFD9FED62
:100B6800086B9FED097B20EE060B20EE070B08BDF6
:100B7800CBB26A64E7ACE53F1CAD1FAF323EF7BFAE
:100B8800DCF90BAECC6D804077278DBADEDF463FAF
:100B98009FED091B08B510F043FE9FED097B20EE81
:100BA800070B10F0E9FC9FED086B9FED097B20EE29
:100BB800060B20EE070B08BD7AB75A914C17E23F97
:100BC8007057A1625ED2F7BFE664970B847B6740DB
:100BD80077278DBADEDF463F9FED091B08B510F079
:100BE8001FFE9FED097B20EE070B10F0C5FC9FED63
:100BF800086B9FED097B20EE060B20EE070B08BD66
:100C08000C3A137DB83BE73FD8E92E98602FFEBF1A
:100C180078BCB71911CA6C4077278DBADEDF463F1A
:100C28009FED091B08B510F0FBFD9FED097B20EE39
:100C3800070B10F0A1FC9FED086B9FED097B20EEE0
:100C4800060B20EE070B08BD7C0D72265839ED3FC8
:100C5800BF0737495005E2BFB222F6A156519E4060
:100C6800B8ECFD7147E3403F9FED091B08B510F054
:100C7800D7FD9FED097B20EE070B10F07DFC9FED63
:100C8800086B9FED097B20EE060B20EE070B08BDD5
:100C98007B7E1D79E94CEB3FFA2453C9D433F3BF6B
:100CA80057E75C1CE7F09A40B8ECFD7147E3403F1A
:100CB8009FED091B08B510F0B3FD9FED097B20EEF1
:100CC800070B10F059FC9FED086B9FED097B20EE98
:100CD800060B20EE070B08BDA7D3BBA65777E13F4D
:100CE800FB8FC0E48265FEBFF21AE883693A81404F
:100CF800B8ECFD7147E3403F9FED091B08B510F0C4
:100D08008FFD9FED097B20EE070B10F035FC9FED62
:100D1800086B9FED097B20EE060B20EE070B08BD44
:100D28003C903CC2771FF23F2D991E08E55BEBBF54
:100D3800E7238617A3976640B8ECFD7147E3403F69
:100D48009FED091B08B510F06BFD9FED097B20EEA8
:100D5800070B10F011FC9FED086B9FED097B20EE4F
:100D6800060B20EE070B08BDE3A4AF4290C3E83F93
:100D78007A4E8BCE70A2FABF6EDB5F01CB26714034
:100D8800B8ECFD7147E3403F9FED091B08B510F033
:100D980047FD9FED097B20EE070B10F0EDFB9FED63
:100DA800086B9FED097B20EE060B20EE070B08BDB4
:100DB800D934185B5187F03F8DE5549EB02DE9BFBB
:100DC8006F4D67C18F8EA34050C0F057172E3A3F22
:100DD8009FED091B08B510F023FD9FED097B20EE60
:100DE800070B10F0C9FB9FED086B9FED097B20EE08
:100DF800060B20EE070B08BD3BB0D9F36D5AEB3F4D
:100E080029AA0285D177F0BF93C6EA34562F9140BC
:100E180050C0F057172E3A3F9FED091B08B510F048
:100E2800FFFC9FED097B20EE070B10F0A5FB9FED63
:100E3800086B9FED097B20EE060B20EE070B08BD23
:100E4800981F71ECF9D1E73F5E76A1BF5E16F3BF3C
:100E5800CDE17A95E545634050C0F057172E3A3FEB
:100E68009FED091B08B510F0DBFC9FED097B20EE18
:100E7800070B10F081FB9FED086B9FED097B20EEBF
:100E8800060B20EE070B08BDB425FEE10D0DEC3F67
:100E98007293AA8E6ED0EEBFC12DCB9D72C17940E0
:100EA80050C0F057172E3A3F9FED091B08B510F0B8
:100EB800B7FC9FED097B20EE070B10F05DFB9FED63
:100EC800086B9FED097B20EE060B20EE070B08BD93
:100ED8008FDC138B3D29F23FBB4CCDAC467EE2BF85
:100EE8008A4068ACE2F9714050C0F057172E3A3F7B
:100EF8009FED091B08B510F093FC9FED097B20EED0
:100F0800070B10F039FB9FED086B9FED097B20EE76
:100F1800060B20EE070B08BD1DE8AC742CC3D83FA8
:100F2800AF388831D80C01C0C896308A048DA240E9
:100F3800C47C61538D993B3F9FED091B08B510F0A8
:100F48006FFC9FED097B20EE070B10F015FB9FED62
:100F5800086B9FED097B20EE060B20EE070B08BD02
:100F6800928E0D038A83E73FBCA75036C0B2EEBF0E
:100F7800DAAB15BE3C617140C47C61538D993B3F2F
:100F88009FED091B08B510F04BFC9FED097B20EE87
:100F9800070B10F0F1FA9FED086B9FED097B20EE2F
:100FA800060B20EE070B08BDE62DABC230F8E23F7A
:100FB800D0DA2343A7E7FCBF11C5545F1E878340DF
:100FC800C47C61538D993B3F9FED091B08B510F018
:100FD80027FC9FED097B20EE070B10F0CDFA9FED63
:100FE800086B9FED097B20EE060B20EE070B08BD72
:100FF800CF74A9D5D1FBE73FEAEE4824DA1DEEBF4E
:10100800BFD7674DE6387540C47C61538D993B3F27
:101018009FED091B08B510F003FC9FED097B20EE3E
:10102800070B10F0A9FA9FED086B9FED097B20EEE6
:10103800060B20EE070B08BDCA89F5680861EA3F70
:10104800AE72DCA96649F6BF9F8E688D6C5B6C40FA
:10105800C47C61538D993B3F9FED091B08B510F087
:10106800DFFB9FED097B20EE070B10F085FA9FED63
:10107800086B9FED097B20EE060B20EE070B08BDE1
:101088009CE589E963BDE63F5AAF7E9F6903F3BFDC
:101098003DF3E3D733DFA0402341A6EBA9583E3FF9
:1010A8009FED091B08B510F0BBFB9FED097B20EEF7
:1010B800070B10F061FA9FED086B9FED097B20EE9E
:1010C800060B20EE070B08BD1D08105655BBE73F61
:1010D80031ADBF4F9D33F6BF689498394F32944075
:1010E8002341A6EBA9583E3F9FED091B08B510F018
:1010F80097FB9FED097B20EE070B10F03DFA9FED63
:10110800086B9FED097B20EE060B20EE070B08BD50
:1011180009D758FE6860EE3F130198C5D68BEABF21
:1011280082172F0A33D579402341A6EBA9583E3FB1
:101138009FED091B08B510F073FB9FED097B20EEAE
:10114800070B10F019FA9FED086B9FED097B20EE55
:10115800060B20EE070B08BD9187A2FC55AFE73FB1
:10116800F3E9E2A2C8EAF1BF53612E362965584077
:101178002341A6EBA9583E3F9FED091B08B510F087
:101188004FFB9FED097B20EE070B10F0F5F99FED63
:10119800086B9FED097B20EE060B20EE070B08BDC0
:1011A8009C2CDFC6D93DE43F37D348534820FDBFC8
:1011B800F47207F2223759402341A6EBA9583E3F63
:1011C8009FED091B08B510F02BFB9FED097B20EE66
:1011D800070B10F0D1F99FED086B9FED097B20EE0E
:1011E800060B20EE070B08BD8D5F2DD75425E53F74
:1011F800151A92A6C346F5BFADD63E9F1F70A440F0
:101208006A0C354F280D393F9FED091B08B510F0C2
:1012180007FB9FED097B20EE070B10F0ADF99FED62
:10122800086B9FED097B20EE060B20EE070B08BD2F
:10123800BD6B67821835E63F488BE8356948F0BFD3
:101248003C59F2000A4F77406A0C354F280D393F58
:101258009FED091B08B510F0E3FA9FED097B20EE1E
:10126800070B10F089F99FED086B9FED097B20EEC5
:10127800060B20EE070B08BDB6D8102CFAD9DC3FB8
:10128800933244566D26FBBFABB8F4E0B8626440B5
:101298006A0C354F280D393F9FED091B08B510F032
:1012A800BFFA9FED097B20EE070B10F065F99FED63
:1012B800086B9FED097B20EE060B20EE070B08BD9F
:1012C80077B1984C5530E93F283379A81973EEBFA8
:1012D8008C57FF075E5E68406A0C354F280D393F12
:1012E8009FED091B08B510F09BFA9FED097B20EED6
:1012F800070B10F041F99FED086B9FED097B20EE7D
:10130800060B20EE070B08BD2086F94AE07EE43F75
:101318004FC57A847E59F8BF252CE168026F6A4070
:101328006A0C354F280D393F9FED091B08B510F0A1
:1013380077FA9FED097B20EE070B10F01DF99FED62
:10134800086B9FED097B20EE060B20EE070B08BD0E
:10135800EA845A17260AEA3F33FF6D075865F0BF3B
:101368005807590315D9A240C7B3000A2B2A3B3F97
:101378009FED091B08B510F053FA9FED097B20EE8D
:10138800070B10F0F9F89FED086B9FED097B20EE35
:10139800060B20EE070B08BDB01EF68F4E22EC3F61
:1013A8004B875E11AD1CEDBFB7DC82969D437E4036
:1013B800C7B3000A2B2A3B3F9FED091B08B510F065
:1013C8002FFA9FED097B20EE070B10F0D5F89FED63
:1013D800086B9FED097B20EE060B20EE070B08BD7E
:1013E800C8E1C9CD1819E53F0F04306793DEF5BF92
:1013F800D715379567827940C7B3000A2B2A3B3F38
:101408009FED091B08B510F00BFA9FED097B20EE44
:10141800070B10F0B1F89FED086B9FED097B20EEEC
:10142800060B20EE070B08BD6696A61226B9EA3F02
:101438005F8B139F533DEFBF03EB5B148C2B614015
:10144800C7B3000A2B2A3B3F9FED091B08B510F0D4
:10145800E7F99FED097B20EE070B10F08DF89FED63
:10146800086B9FED097B20EE060B20EE070B08BDED
:1014780085742A439E84E53F8D765D80FD68FABFBA
:1014880036F3A568AE7F7D40C7B3000A2B2A3B3FE1
:101498009FED091B08B510F0C3F99FED097B20EEFD
:1014A800070B10F069F89FED086B9FED097B20EEA4
:1014B800060B20EE070B08BDDCF0A11AB3E3EC3FE6
:1014C8003783BBF2DB52EBBFCB026F3E13A9A440BC
:1014D80090870C181AC8383F9FED091B08B510F003
:1014E8009FF99FED097B20EE070B10F045F89FED63
:1014F800086B9FED097B20EE060B20EE070B08BD5D
:10150800F3CBC227AE7DF23F36BEF6603BD9E6BFCD
:10151800040DB20F7D88874090870C181AC8383F91
:101528009FED091B08B510F07BF99FED097B20EEB4
:10153800070B10F021F89FED086B9FED097B20EE5B
:10154800060B20EE070B08BDA568E68D741CE73F67
:10155800813E31C0B67FFCBF29CF2A40B9B65A4078
:1015680090870C181AC8383F9FED091B08B510F072
:1015780057F99FED097B20EE070B0FF0FDFF9FED5C
:10158800086B9FED097B20EE060B20EE070B08BDCC
:10159800DEBFDA049677E73F18037CC6FA07FEBF7A
:1015A800FD0368982191734090870C181AC8383F3A
:1015B8009FED091B08B510F033F99FED097B20EE6C
:1015C800070B0FF0D9FF9FED086B9FED097B20EE0D
:1015D800060B20EE070B08BD0FCCC12179D3EA3FDB
:1015E800CD1E2D124E8FF8BFCFFAB1490CF16340D2
:1015F80090870C181AC8383F9FED091B08B510F0E2
:101608000FF99FED097B20EE070B0FF0B5FF9FED5B
:10161800086B9FED097B20EE060B20EE070B08BD3B
:10162800522AB4EDA218F23F964FE9089716DBBF8D
:101638000B654E046E03A84040BD324F4952353FFA
:101648009FED091B08B510F0EBF89FED097B20EE24
:10165800070B0FF091FF9FED086B9FED097B20EEC4
:10166800060B20EE070B08BD748EA90BF5B7EE3FED
:10167800DDFCB7B23878E4BF52745DF075DF6D40B9
:1016880040BD324F4952353F9FED091B08B510F058
:10169800C7F89FED097B20EE070B0FF06DFF9FED5C
:1016A800086B9FED097B20EE060B20EE070B08BDAB
:1016B8007D362A33DBC9E53F85268E1079F701C0D0
:1016C800AF9245EA28066D4040BD324F4952353F3A
:1016D8009FED091B08B510F0A3F89FED097B20EEDC
:1016E800070B0FF049FF9FED086B9FED097B20EE7C
:1016F800060B20EE070B08BD0FA357AFF790E13F8D
:10170800053351C938FA06C02F861699F7BF6C40C1
:1017180040BD324F4952353F9FED091B08B510F0C7
:101728007FF89FED097B20EE070B0FF025FF9FED5B
:10173800086B9FED097B20EE060B20EE070B08BD1A
:101748002EFF167D5C16E23F88917AECA78506C0CD
:10175800737F30514468674040BD324F4952353F2E
:101768009FED091B08B510F05BF89FED097B20EE93
:10177800070B0FF001FF9FED086B9FED097B20EE33
:10178800060B20EE070B08BD1B88C8CFC10CE43F31
:101798004B0E1182483CF8BF2E0AA06A3D97A6401E
:1017A8002EC92A4703AA363F9FED091B08B510F03A
:1017B80037F89FED097B20EE070B0FF0DDFE9FED5C
:1017C800086B9FED097B20EE060B20EE070B08BD8A
:1017D8009B73D70B7515E83F36F92B67FBB6F6BF39
:1017E8000A368468FEEB72402EC92A4703AA363FA0
:1017F8009FED091B08B510F013F89FED097B20EE4B
:10180800070B0FF0B9FE9FED086B9FED097B20EEEB
:10181800060B20EE070B08BDE9569F51BBCFF03FE2
:10182800F4189B71C514F0BFBA18E01D5A4E5B40FE
:101838002EC92A4703AA363F9FED091B08B50FF0AA
:10184800EFFF9FED097B20EE070B0FF095FE9FED54
:10185800086B9FED097B20EE060B20EE070B08BDF9
:1018680043A862EFB7FCE23FA6A2B5FD42D403C08D
:10187800B8E4B671296B79402EC92A4703AA363FC6
:101888009FED091B08B50FF0CBFF9FED097B20EEFC
:10189800070B0FF071FE9FED086B9FED097B20EEA3
:1018A800060B20EE070B08BD9AFC0574F92BE73FE1
:1018B800C527C83FB51800C0F0B195738CAB63401D
:1018C8002EC92A4703AA363F9FED091B08B50FF01A
:1018D800A7FF9FED097B20EE070B0FF04DFE9FED54
:1018E800086B9FED097B20EE060B20EE070B08BD69
:1018F800A622351E4086E83FC0448D36DDD7E7BFB7
:10190800C8D3F554B23392402D52489FFD204C3F26
:101918009FED091B08B50FF083FF9FED097B20EEB3
:10192800070B0FF029FE9FED086B9FED097B20EE5A
:10193800060B20EE070B08BD5197701FD1FDEB3F3A
:101948000D6700D0594CE3BFE643EBBC4EDE904038
:101958002D52489FFD204C3F9FED091B08B50FF005
:101968005FFF9FED097B20EE070B0FF005FE9FED53
:10197800086B9FED097B20EE060B20EE070B08BDD8
:10198800CF3C0BBCAD80E13F7117D46A622902C01D
:10199800B5D00BFF8FFA8D402D52489FFD204C3F4C
:1019A8009FED091B08B50FF03BFF9FED097B20EE6B
:1019B800070B0FF0E1FD9FED086B9FED097B20EE13
:1019C800060B20EE070B08BDF92364C3F0A0E53F22
:1019D800D47987F446C0FBBF7B240F7FCA227540A9
:1019E8002D52489FFD204C3F9FED091B08B50FF075
:1019F80017FF9FED097B20EE070B0FF0BDFD9FED54
:101A0800086B9FED097B20EE060B20EE070B08BD47
:101A1800D52E865AFC2ADD3FD7213EE81B9803C005
:101A2800956579F9E8DB78402D52489FFD204C3FB9
:101A38009FED091B08B50FF0F3FE9FED097B20EE23
:101A4800070B0FF099FD9FED086B9FED097B20EECA
:101A5800060B20EE070B08BDFC800A253177E53F11
:101A680049C4C7A8F484F3BFEE145E2C400C9F4011
:101A78008F5DEBB89C7D403F9FED091B08B50FF0CB
:101A8800CFFE9FED097B20EE070B0FF075FD9FED54
:101A9800086B9FED097B20EE060B20EE070B08BDB7
:101AA800052F3CF9000DD83FB5D8A5B7950D03C053
:101AB800EA9CFA29106182408F5DEBB89C7D403F1B
:101AC8009FED091B08B50FF0ABFE9FED097B20EEDB
:101AD800070B0FF051FD9FED086B9FED097B20EE82
:101AE800060B20EE070B08BDF0BF2BF47757DD3F40
:101AF800ED751B24281E07C0D67FED4597957140CC
:101B08008F5DEBB89C7D403F9FED091B08B50FF03A
:101B180087FE9FED097B20EE070B0FF02DFD9FED53
:101B2800086B9FED097B20EE060B20EE070B08BD26
:101B38000364970EF5EEE83FEA3D51916D34FCBF22
:101B4800B508ADD94FA569408F5DEBB89C7D403F86
:101B58009FED091B08B50FF063FE9FED097B20EE92
:101B6800070B0FF009FD9FED086B9FED097B20EE39
:101B7800060B20EE070B08BD053D158E78C7E53F1F
:101B8800E99BB528504301C0D16AA4682F7A574011
:101B98008F5DEBB89C7D403F9FED091B08B50FF0AA
:101BA8003FFE9FED097B20EE070B0FF0E5FC9FED54
:101BB800086B9FED097B20EE060B20EE070B08BD96
:101BC800801764888F74E63F3778143D0F6DF5BF32
:101BD8006BB02C5E981B9D4015369986FC96413F4C
:101BE8009FED091B08B50FF01BFE9FED097B20EE4A
:101BF800070B0FF0C1FC9FED086B9FED097B20EEF2
:101C0800060B20EE070B08BD2BD9A26F54ECE03F62
:101C180020C2656714F503C088896F8DA4446F409E
:101C280015369986FC96413F9FED091B08B50FF0C4
:101C3800F7FD9FED097B20EE070B0FF09DFC9FED54
:101C4800086B9FED097B20EE060B20EE070B08BD05
:101C5800F2467E44C4EBEC3F622789A02DF2F4BF24
:101C6800480603E290E5654015369986FC96413FA3
:101C78009FED091B08B50FF0D3FD9FED097B20EE02
:101C8800070B0FF079FC9FED086B9FED097B20EEA9
:101C9800060B20EE070B08BD9640ABD84294E53FF3
:101CA80015F8907B6F8C01C0A175C51048E562409E
:101CB80015369986FC96413F9FED091B08B50FF034
:101CC800AFFD9FED097B20EE070B0FF055FC9FED54
:101CD800086B9FED097B20EE060B20EE070B08BD75
:101CE8007E8585833636E53FB5310362DF7A03C0EA
:101CF80004A126B7F268684015369986FC96413FDC
:101D08009FED091B08B50FF08BFD9FED097B20EEB9
:101D1800070B0FF031FC9FED086B9FED097B20EE60
:101D2800060B20EE070B08BD6D340145756DE33FCA
:101D3800A84781FFCE73FBBF7CF18C3725B2A24048
:101D48009D404409BE623B3F9FED091B08B50FF05B
:101D580067FD9FED097B20EE070B0FF00DFC9FED53
:101D6800086B9FED097B20EE060B20EE070B08BDE4
:101D7800850C40F13114E43FBB4239CEBE5B00C054
:101D8800F148443C834380409D404409BE623B3F48
:101D98009FED091B08B50FF043FD9FED097B20EE71
:101DA800070B0FF0E9FB9FED086B9FED097B20EE19
:101DB800060B20EE070B08BD091A963267FDE93FAE
:101DC8005935AF58A098F7BF67CD264140536A40B0
:101DD8009D404409BE623B3F9FED091B08B50FF0CB
:101DE8001FFD9FED097B20EE070B0FF0C5FB9FED54
:101DF800086B9FED097B20EE060B20EE070B08BD54
:101E080011F6FA03A077E23F9FC6E363973A07C04B
:101E18008F5B85AE7F0662409D404409BE623B3FB2
:101E28009FED091B08B50FF0FBFC9FED097B20EE29
:101E3800070B0FF0A1FB9FED086B9FED097B20EED0
:101E4800060B20EE070B08BDDE828CD67433E03F0C
:101E5800D532017863400EC0013C0F4F4BDF7F4005
:101E68009D404409BE623B3F9FED091B08B50FF03A
:101E7800D7FC9FED097B20EE070B0FF07DFB9FED54
:101E8800086B9FED097B20EE060B20EE070B08BDC3
:101E98009CF91AFFF017E53FE33514544B73F9BF6B
:101EA8002A320946D1159E4040A7DCAAB004413F1A
:101EB8009FED091B08B50FF0B3FC9FED097B20EEE1
:101EC800070B0FF059FB9FED086B9FED097B20EE88
:101ED800060B20EE070B08BD18128968BBB9E13F55
:101EE8007747B12FDAB002C05032B5C50F438540ED
:101EF80040A7DCAAB004413F9FED091B08B50FF0CD
:101F08008FFC9FED097B20EE070B0FF035FB9FED53
:101F1800086B9FED097B20EE060B20EE070B08BD32
:101F2800A44E1EC2F7F4E03FFF9DFE5FBE3507C01A
:101F3800DC375AEF3F166A4040A7DCAAB004413F9D
:101F48009FED091B08B50FF06BFC9FED097B20EE98
:101F5800070B0FF011FB9FED086B9FED097B20EE3F
:101F6800060B20EE070B08BD277F688526F3E13FA7
:101F780010C3B84055ED06C019E58C41C720514043
:101F880040A7DCAAB004413F9FED091B08B50FF03C
:101F980047FC9FED097B20EE070B0FF0EDFA9FED54
:101FA800086B9FED097B20EE060B20EE070B08BDA2
:101FB800B1C42E89C69DE53FA85574FD3DF804C0FF
:101FC800F714B77F349F694040A7DCAAB004413FAB
:101FD8009FED091B08B50FF023FC9FED097B20EE50
:101FE800070B0FF0C9FA9FED086B9FED097B20EEF8
:101FF800060B20EE070B08BD44EC56644D75DA3F1E
:102008008EE01A04551400C0E3A8B93B1DFD9C409E
:10201800102C8E507BA9413F9FED091B08B50FF08E
:10202800FFFB9FED097B20EE070B0FF0A5FA9FED54
:10203800086B9FED097B20EE060B20EE070B08BD11
:1020480044598D1DC3E8DC3FAD31BD4034BF03C0EA
:10205800F4A8E2D3A8BF8040102C8E507BA9413F42
:102068009FED091B08B50FF0DBFB9FED097B20EE08
:10207800070B0FF081FA9FED086B9FED097B20EEAF
:10208800060B20EE070B08BD0FA81F2EF1F8E13F45
:10209800531BA5944EEB05C0DCFCA79684E4804056
:1020A800102C8E507BA9413F9FED091B08B50FF0FE
:1020B800B7FB9FED097B20EE070B0FF05DFA9FED54
:1020C800086B9FED097B20EE060B20EE070B08BD81
:1020D8003F60D1968AECE93F6E1E315F70B000C058
:1020E8007B4ABF6F8DA47140102C8E507BA9413F55
:1020F8009FED091B08B50FF093FB9FED097B20EEC0
:10210800070B0FF039FA9FED086B9FED097B20EE66
:10211800060B20EE070B08BD0EE91DA4F1BCE03F3D
:10212800AA964D7082B7FEBF3192A3B80765A44046
:10213800340761A6C81A393F9FED091B08B50FF08F
:102148006FFB9FED097B20EE070B0FF015FA9FED53
:10215800086B9FED097B20EE060B20EE070B08BDF0
:10216800837276367331E93F50C6921552D9F9BF5A
:102178000288DFC0A2618640340761A6C81A393FC9
:102188009FED091B08B50FF04BFB9FED097B20EE77
:10219800070B0FF0F1F99FED086B9FED097B20EE1F
:1021A800060B20EE070B08BDC7DEBD37E8D6E73FB4
:1021B800C83EF7E7083BFBBF62CB0B29EB7C6A40C4
:1021C800340761A6C81A393F9FED091B08B50FF0FF
:1021D80027FB9FED097B20EE070B0FF0CDF99FED54
:1021E800086B9FED097B20EE060B20EE070B08BD60
:1021F80013FA5DA09B00E33FE49FD534F30105C0CB
:1022080069F25A63EDBC6040340761A6C81A393FC9
:102218009FED091B08B50FF003FB9FED097B20EE2E
:10222800070B0FF0A9F99FED086B9FED097B20EED6
:10223800060B20EE070B08BDB0696D2731B7E73FE5
:1022480052163AFBE37E00C01BFA9E861DED6440E1
:10225800340761A6C81A393F9FED091B08B50FF06E
:10226800DFFA9FED097B20EE070B0FF085F99FED54
:10227800086B9FED097B20EE060B20EE070B08BDCF
:1022880039ADFFE4A0DFE03F13B7955A72E0FCBF19
:102298007A1B27ABE7F49740311CD0A3365F453F44
:1022A8009FED091B08B50FF0BBFA9FED097B20EEE7
:1022B800070B0FF061F99FED086B9FED097B20EE8E
:1022C800060B20EE070B08BD53061699B897DF3F9B
:1022D80088723B8566DB06C06CEA2DC7DB718B40D4
:1022E800311CD0A3365F453F9FED091B08B50FF0A1
:1022F80097FA9FED097B20EE070B0FF03DF99FED54
:10230800086B9FED097B20EE060B20EE070B08BD3E
:10231800BE800A0DFD60E83F18F5DA62BE4FFEBFC9
:102328001F0E496F4CA25A40311CD0A3365F453F5F
:102338009FED091B08B50FF073FA9FED097B20EE9E
:10234800070B0FF019F99FED086B9FED097B20EE45
:10235800060B20EE070B08BD77B51C954C2BE53F07
:10236800C5F74DD9941206C094D11BC8849A7640FB
:10237800311CD0A3365F453F9FED091B08B50FF010
:102388004FFA9FED097B20EE070B0FF0F5F89FED54
:10239800086B9FED097B20EE060B20EE070B08BDAE
:1023A800C3C197E60000E53FE2A3C4A37222F9BFC8
:1023B800D39FAF92A83EA6402038AE9E4304373F35
:1023C8009FED091B08B50FF02BFA9FED097B20EE56
:1023D800070B0FF0D1F89FED086B9FED097B20EEFE
:1023E800060B20EE070B08BD96E662DFBC64E63FED
:1023F80043D88A73B25201C0BA0473D9BAA07940DB
:102408002038AE9E4304373F9FED091B08B50FF0F7
:1024180007FA9FED097B20EE070B0FF0ADF89FED53
:10242800086B9FED097B20EE060B20EE070B08BD1D
:102438001FBA5D199F96E53FD80A08A32F9305C0D8
:10244800481D9396475784402038AE9E4304373F33
:102458009FED091B08B50FF0E3F99FED097B20EE0E
:10246800070B0FF089F89FED086B9FED097B20EEB5
:10247800060B20EE070B08BD8E8AFBB00C1DE63F4D
:1024880049ED88BA701003C00DE2037C4925594014
:102498002038AE9E4304373F9FED091B08B50FF067
:1024A800BFF99FED097B20EE070B0FF065F89FED54
:1024B800086B9FED097B20EE060B20EE070B08BD8D
:1024C800DB2DFBB49BEEE13FE07F25226AB206C01C
:1024D80085136C05E5135A402038AE9E4304373FF8
:1024E8002DE9F0410D1E28DB0268044683689B1A1B
:1024F800AB4201D3BDE8F08143682846A3EB02084C
:102508000EF043FF0646D4E90072D21B002A08DC0D
:1025180087B906EB08033544C4E90063A560BDE844
:10252800F081394610F0D0FBA168C91B38460EF07F
:102538002AFFEEE7A168C91BF8E701480EF03CFF47
:1025480094370108000000002DE9F04FD348ADF69C
:10255800EC1D01F0EBFA0021D048002401F0A6FBA5
:102568004FF4707200210DF5C56010F0C7FB1821FB
:1025780057A859940DF5D9690DF2AC470DF2FC46F0
:102588000DF589650DF5C56A0DF5CA68CDE9DE4416
:10259800CDE9E044CDE9E244CDE95744FFF7A0FF97
:1025A80018215AA85C94CDE95A44FFF799FF0DF217
:1025B800245ECDF8BC900DF5DE69CDF884E00DF50C
:1025C800A76ECDF8C4900DF5E369CDF888E00DF25B
:1025D8004C5ECDF8CC900DF5E869CDF88CE00DF5A2
:1025E800AC6ECDF8D4900DF5ED69CDF890E00DF214
:1025F800745ECDF8DC900DF5F269CDF894E00DF538
:10260800B16ECDF8E4900DF5F769CDF898E00DF2CC
:102618009C5E0DF58E630DF28441CDF89CE00DF5BE
:10262800B66E0DF59360CDF8EC90CDF8A0E00DF204
:10263800C45E0DF5FC690DF25C42CDF8A4E00DF521
:10264800BB6E18930DF59863CDF8A8E00DF2EC5E1B
:1026580019910DF2D441CDF8ACE00DF5C06E1A9089
:102668000DF59D601B970DF5A2671F960DF5CF66BA
:10267800CDF8B0E00DF2146ECDF8F4900DF608091F
:1026880016921C931D911E902097CDF8B4E00DF57D
:10269800D46E2E96CDF8FC900DF50369DFF800C2D4
:1026A800CDF804910DF65809CDF80C910DF508698F
:1026B800CDF814910DF6A809CDF81C910DF50D690A
:1026C800CDF824910DF6F809CDF82C910DF5126985
:1026D800CDF834910DF64819CDF83C910DF51769F0
:1026E800CDF844910DF69819BCE80F00CDF84C913F
:1026F8000DF51C690CF5E87B0CF50877CDF85491BD
:102708000CF11809CDF800900CF12C09CDF80490C3
:102718000CF14009CDF808900CF15409CDF80C9053
:102728000CF16809CDF810900CF17C09CDF81490E3
:102738000CF19009CDF818900CF1A409CDF81C9073
:102748000CF1B809CDF820900CF1CC090FC5CDF8E3
:10275800249062460CF1E0090CF51C7152F8043B18
:102768000CF54470CDF828900CF1F4092B600CF5A9
:102778003073CDF82C900CF5847930910CF52671D6
:10278800CDF830900CF58E7932910CF53A71CDF880
:1027980034900CF5987934930CF54E73CDF8389045
:1027A8000CF5A27936910CF55871CDF83C900CF5E2
:1027B800AC7938900CF56270CDF840900CF5B6798C
:1027C8003A930CF56C73CDF844900CF5C0793C91B4
:1027D8000CF57671CDF848900CF5CA793E900CF559
:1027E800806040930CF5856342910CF58A61CDF8C1
:1027F8004C900CF5D47944900CF58F6046930CF509
:10280800946348910CF59961CDF8509016460CF5F3
:10281800DE794A904C930CF59E600CF5A3634E91BB
:102828000CF5A861CDF8549050900CF5FC795293B2
:102838000CF5127554910CF5AD6C0FCE1796169ECB
:102848000FC63246179E3368009E13600FCE00965F
:10285800189E0FC6009B1B683360019E0FCE019621
:10286800199E0FC6019B1B683360029E0FCE02960D
:102878001A9E0FC6029B1B683360039E0FCE0396F9
:102888001B9E0FC603990B683360049E0FCE0496F7
:102898001C9E0FC60498036804E000BFEC030024E4
:1028A800C03101083360059E0FCE05961D9E0FC6E8
:1028B800059B1B683360069E0FCE06961E9E0FC6AC
:1028C80006990B683360079E0FCE07961F9E0FC6AA
:1028D800079803683360089E0FCE0896209E0FC69F
:1028E800089803683360099E0FCE0996219E0FC68B
:1028F800099B1B6833600A9E0FCE0A96229E0FC65C
:102908000A990B6833600B9E0FCE0B96239E0FC659
:102918000B98036833600C9E0FCE0C96249E0FC64E
:102928000C98036833600D9E0FCE0D96259E0FC63A
:102938000D9B1B6833600E9E0FCE0E96269E0FC60B
:102948000E990B6833600F9E0FCE0F96279E0FC609
:102958000F9803683360109E0FCE1096289E0FC6FE
:10296800109803683360119E0FCE1196299E0FC6EA
:10297800119B1B683360129E0FCE12962A9E0FC6BB
:10298800129B1B683360139E0FCE13962B9E0FC6A7
:10299800139803683360149E0FCE14962C9E0FC6AE
:1029A800149803683360159E0FCE15962D9E0FC69A
:1029B800159B1B683360BBE80F00AAE80F00BBE853
:1029C8000F00AAE80F009BE803000DF5E07B8AE8FA
:1029D8000300B9E80F00A8E80F00B9E80F00A8E85D
:1029E8000F0099E803000DF5EA7A0DF5F47988E807
:1029F80003000FCF2E9E0DF5FE780FC60FCF0FC622
:102A080097E80300C6E900010FCDAEE80F000FCD2F
:102A1800309EAEE80F0095E803002F9D8EE8030076
:102A28000FCE0FC50FCE0FC596E80300329E85E87E
:102A380003000FCE319D0FC50FCE0FC596E80300DA
:102A4800349E85E803000FCE339D0FC50FCE0FC50A
:102A580096E80300369E85E803000FCE359D0FC526
:102A68000FCE0FC596E8030085E80300389E379D12
:102A78000FCE0FC50FCE0FC596E803003A9E85E826
:102A880003000FCE399D0FC50FCE0FC596E8030082
:102A98003C9E85E803000FCE3B9D0FC50FCE0FC5AA
:102AA80096E8030085E803003E9E3D9D0FCE0FC5C6
:102AB8000FCE0FC596E80300409E85E803000FCEB1
:102AC8003F9D0FC50FCE0FC596E80300429E85E8CF
:102AD80003000FCE419D0FC50FCE0FC596E803002A
:102AE80085E80300449E439D0FCE0FC50FCE0FC54A
:102AF80096E80300469E85E803000FCE459D0FC566
:102B08000FCE0FC596E80300489E85E803000FCE58
:102B1800479D0FC50FCE0FC596E8030085E8030053
:102B28004A9E499D0FCE0FC50FCE0FC596E80300EC
:102B38004C9E85E803000FCE4B9D0FC50FCE0FC5E9
:102B480096E803004E9E85E803000FCE4D9D0FC505
:102B58000FCE0FC596E8030085E80300509E4F9DF1
:102B68000FCE0FC50FCE0FC596E80300529E85E81D
:102B780003000FCE519D0FC50FCE0FC596E8030079
:102B8800549E85E803000FCE539D0FC50FCE0FC589
:102B980096E8030089AE85E80300BCE80F00559F5E
:102BA800FAAD0FC7BCE80F000FC79CE803000DF58E
:102BB800896287E803000DF5C561E4A800F07EFA94
:102BC8004FF60B7161A866AA6BAB0180C46084AF35
:102BD800ADF898116994ADF8AC116E94ADF8C011C8
:102BE8007394ADF8D4117894ADF8E8117D94ADF8EC
:102BF800FC118294ADF810128794C0E90144CDE924
:102C08006744CDE96C44CDE97144CDE97644CDE91A
:102C18007B44CDE98044CDE98544ADF824128C94F9
:102C2800ADF838129194ADF84C129694ADF8601244
:102C38009B94ADF87412A094ADF88812A594ADF8E1
:102C48009C12AA94ADF8B012AF94ADF8C412CDE9B5
:102C58008A44CDE98F44CDE99444CDE99944CDE93E
:102C68009E44CDE9A344CDE9A844CDE9AD44CDE9DE
:102C7800B244C5E90002B494ADF8D812B994ADF8DD
:102C8800EC12BE94ADF80013C394ADF81413C894B5
:102C9800ADF82813CD94ADF83C13D294ADF8501389
:102CA80040F60141D794CDE9B744CDE9BC44CDE91C
:102CB800C144CDE9C644CDE9CB44CDE9D044CDE902
:102CC800D544C5E9023B8EAB5D9101212E626B6252
:102CD80093AB5E94AB6298ABEB629DAB2B63A2ABFC
:102CE8006B63A7ABAB63ACABEB63B1AB2B64B6ABBD
:102CF8006B64BBABAB64C0ABEB64C5AB2B65CAAB59
:102D08006B65CFABAB65D4ABEB650223CDE95F1345
:102D18005DA9C5E90687C5E904A901F081FC66AA91
:102D28005DA9104640F60232ADF8742101F078FC36
:102D38006BAB5DA9184640F60223ADF8743101F07B
:102D48006FFC40F6021358465DA9ADF8743101F0E6
:102D580067FC40F6020350465DA9ADF8743101F0F6
:102D68005FFC40F2032348465DA9ADF8743101F0D9
:102D780057FC40F6024340465DA9ADF8743101F0B6
:102D88004FFC40F6062338465DA90DF24447ADF8DE
:102D9800743101F045FC40F6063330465DA90DF26A
:102DA8007736ADF8743101F03BFC40F201438EA850
:102DB8005DA9ADF8743101F033FC40F2015393A8DA
:102DC8005DA9ADF8743101F02BFC40F6010398A819
:102DD8005DA9ADF8743101F023FC40F601139DA8FC
:102DE8005DA9ADF8743101F01BFC40F20163A2A8A3
:102DF8005DA9ADF8743101F013FC40F20173A7A886
:102E08005DA9ADF8743101F00BFC4FF00203ACA8DA
:102E18005DA9ADF8743101F003FC4FF44073B1A81B
:102E28005DA9ADF8743101F0FBFB40F20113B6A8BF
:102E38005DA9ADF8743101F0F3FB4FF4E063BBA872
:102E48005DA9ADF8743101F0EBFB4FF4C063C0A885
:102E58005DA9ADF8743101F0E3FB40F60232C5A874
:102E68005DA9ADF8742101F0DBFB40F20243CAA86A
:102E78005DA9ADF8743101F0D3FB40F60333CFA858
:102E88005DA9ADF8743101F0CBFB40F60613D4A868
:102E98005DA9ADF8743101F0C3FB4BF6803356944D
:102EA80056A8D9A9D993CDE9DA44CDE9DC44F9ACDF
:102EB80001F000FB54F8040F01F0D0FD06F8010FF3
:102EC800A742F7D14FF0000902F07CFF494622489B
:102ED80000260DF2773700F02BFE09E097F8018005
:102EE800B8F1000F2ED1013607F8014F182E12D075
:102EF80055F8260001F0B2FD04460028EED07B7894
:102F0800F1B2E4A8002BEED1013600F031FD07F84C
:102F1800014F182EECD1E4A800F09EFDB0EE005B46
:102F2800B7EE007B002156A8A0EE057B9FED086B4D
:102F380027EE067BBCEEC77B17EE103A9AB201F07B
:102F480037FBC1E7F1B2E4A8C14600F0D9FBCAE7F4
:102F58000000000000006040EC0300240448002347
:102F6800044A0549036043610362C3630EF006BA6D
:102F7800EC03002400000024A1030008B7EE000BB6
:102F8800704700BF084A80ED000B80ED021B80ED02
:102F9800042B80ED063B80ED084BC0E90A22C0E90E
:102FA8000C228263704700BF852F000800000000D4
:102FB80010B52DED108BB0EE409B044682B090ED1D
:102FC800000B9FED31AB20EE0A0B20EE090B0EF043
:102FD80093FAA36AB0EE40EBB0EE490B9847B0EE17
:102FE80040DB94ED027B27EE0A0B20EE090B0EF076
:102FF80083FAE36AB0EE408BB0EE490B984728EEAF
:10300800008B94ED047B27EE0A0B20EE090B0EF0E3
:1030180073FA236BB0EE40CBB0EE490B9847B0EE95
:1030280040BB94ED067B27EE0A0B20EE090B0EF051
:1030380063FA636BB0EE40FBB0EE490B98478DED39
:10304800000B94ED080B20EE0A0B20EE090B0EF096
:1030580053FAA36BB0EE407BB0EE490BB0EE479B42
:103068009847AEEE0D8B9DED006B9FED097BACEEA6
:103078000B8BAFEE068BA9EE008B28EE070B02B088
:10308800BDEC108B10BD00BF182D4454FB21194016
:103098009A9999999999C93F042A05D8DFE802F0C5
:1030A8000507090B03008163704781627047C1629D
:1030B8007047016370474163704700BF2DE9F04FC7
:1030C80001230027ADB08846036200F11801C363ED
:1030D8000546C760924601600391C0E901374FF089
:1030E8007E530361C362836400F134030493C361B4
:1030F80000F15003C0E90577C0E90977C0E90C770A
:10310800C0E91077C0E91377836302F05BFE83465A
:103118000AAE0AA80DF17009FCB298ED084B98EDBB
:10312800063B98ED042B98ED021B98ED000BFFF77A
:1031380029FF0FCEA9E80F000FCEA9E80F000FCE88
:10314800A9E80F0096E80F0089E80F0050200EF05C
:103158001CF900230DF1700E0472036000F1100CCD
:103168000646BEE80F00ACE80F00BEE80F00ACE86A
:103178000F00BEE80F00ACE80F0099E80F008CE8DC
:103188000F00EB68002B40F0BB80AA6822B9D4E19D
:103198001268002A00F0D181117AA142F8D1304694
:1031A80050210EF0F0F8EB68002B40F0EC80A86896
:1031B80020B9A2E00068002800F09F80037AA342AB
:1031C800F8D110300022DAF80010FFF765FFEB683D
:1031D800002B40F03D81A86820B98EE000680028E7
:1031E80000F08B80037AA342F8D110300122DAF87C
:1031F8000410FFF751FFEB68002B5DD1A86818B9E0
:103208007BE00068002878D0037AA342F9D1103017
:103218000222DAF80810FFF73FFFEB68002B40F0B6
:103228006581A86818B968E00068002865D0037A45
:10323800A342F9D110300322DAF80C10FFF72CFF63
:10324800EB68002B40F02B81A86818B955E000689E
:10325800002852D0037AA342F9D110300422DAF8B8
:103268001010FFF719FF0C200EF08FF80023064608
:1032780004710360AB6AC0F808B0002B40F0A78067
:103288006A6A22B9CAE11268002A00F0C781117976
:10329800A142F8D130460C210EF075F8013708F13B
:1032A80028080AF1140A172F7FF432AF00232846A2
:1032B8006B652DB0BDE8F08FD5E90030B7FBF0F6AF
:1032C80000FB167653F826C0BCF1000F15D0DCF8C9
:1032D8000020137A9C420CD0116871B10B7A944685
:1032E800B3FBF0F200FB1232964206D19C420A462A
:1032F800F2D1DCF80000002889D193480EF05FF87D
:10330800D5E90012B7FBF2F902FB197951F829C087
:10331800BCF1000F18D0DCF80000017A8646A14203
:103328000DD0DEF8000078B1017AF446B1FBF2FE68
:1033380002FB1E1EF14507D1A1428646F1D1DCF8F9
:10334800001000297FF42BAF012106A8009105F198
:1033580010010EF083F89DF81830002B40F0F6802D
:103368002B6853F8292003EB8901002A00F03781E4
:103378001268326053F829301E60EB680133EB6045
:10338800002B3FF414AFD5E90030B7FBF0F600FB93
:10339800167653F826C0BCF1000FAED0DCF800203A
:1033A800137AA3420DD011680029A6D00B7A94464F
:1033B800B3FBF0F200FB123296429ED1A3420A46BA
:1033C800F1D1DCF8000000287FF4FBAE95E7D5E9E1
:1033D8000712B7FBF2F902FB197951F829C0BCF1C1
:1033E800000F18D0DCF8000001798646A1420DD004
:1033F800DEF8000078B10179F446B1FBF2FE02FB79
:103408001E1EF14507D1A1428646F1D1DCF8001015
:1034180000297FF43FAF012108A8009105F12C0194
:103428000EF01CF89DF82030002B40F0FD80EC6970
:1034380054F8293004EB8902002B00F032811B6814
:10344800336054F829301E60AB6A0133AB6225E75C
:10345800D5E90030B7FBF0F600FB167653F826C026
:10346800BCF1000F3FF449AFDCF80020137AA34207
:103478000FD0116800293FF440AF0B7A9446B3FB94
:10348800F0F200FB123296427FF437AFA3420A46AD
:10349800EFD1DCF8000000287FF4A7AE2DE7D5E9CE
:1034A8000030B7FBF0F600FB167653F826C0BCF1E7
:1034B800000F3FF422AFDCF80020137AA3420FD0AC
:1034C800116800293FF419AF0B7A9446B3FBF0F268
:1034D80000FB123296427FF410AFA3420A46EFD1A6
:1034E800DCF8000000287FF4B8AE06E7D5E9003024
:1034F800B7FBF0F600FB167653F826C0BCF1000FB8
:103508003FF4FBAEDCF80020137AA3420FD0116819
:1035180000293FF4F2AE0B7A9446B3FBF0F200FBBD
:10352800123296427FF4E9AEA3420A46EFD1DCF8A4
:10353800000000287FF47EAEDFE66A68B7FBF2F988
:1035480002FB197900E700BFA4370108DDF81C90D9
:10355800B9F1010F00F0C980B9F1005F80F0C080B7
:103568004FEA8902104605920DF00FFF059A0021D7
:1035780005900FF0C3FB059BD5F808C00022AA6090
:10358800BCF1000F14D096466046059401460068C9
:103598000A7AB2FBF9FC09FB1C2253F8224074B3E7
:1035A80024680C6053F8222011600028EED1059C95
:1035B800039AD5E90001824204D0890005930DF0F1
:1035C800E2FE059BB7FBF9F2C5E9003909FB127960
:1035D80053F8292003EB8901002A7FF4C9AEAA68B1
:1035E800AE6032603AB1127A6868B2FBF0FC00FB58
:1035F8001C2243F8226005F108030B60BDE6AC68A5
:103608000C602C4644F8081F43F822400C680CB1A3
:1036180043F82E1096460028B8D1C8E72A6AB7FBA7
:10362800F2F902FB1979F6E6DDF82490B9F1010FF9
:103638005FD0B9F1005F53D24FEA890420460DF0FC
:10364800A4FE2246002104460FF058FB686A0023B6
:103658006B6288B19C46024600681379B3FBF9F1A6
:1036680009FB113354F8231059B30968116054F851
:1036780023301A600028EED1049BD5E90701834264
:1036880002D089000DF07FFEB7FBF9F3C5E90749C1
:1036980009FB137954F8293004EB8902002B7FF4D5
:1036A800CEAE6B6A6E6233603BB11B79296AB3FB9D
:1036B800F1F001FB103344F8236005F12403136093
:1036C800C2E6696A1160294641F8242F44F823109C
:1036D800116809B144F82C209C460028BBD1CBE7DF
:1036E800B9F1804F09D30DF064FE0023AB61039B51
:1036F80042E70023049C6B63A8E70DF057FE00BF68
:103708002DE9F047064684B00D4602F05BFBF368EE
:103718000746002B4CD1B4681CB96AE02468002C19
:1037280067D0237AAB42F9D10C2010340DF02DFE6E
:103738000022736C8046846005710260002B5BD0A8
:10374800D6E90E12B5FBF2F902FB195951F829C056
:10375800BCF1000F5ED0DCF800000179A9420DD061
:103768000468002C56D021798446B1FBF2F002FBA4
:10377800101048454ED1A9422046F1D1DCF800107E
:10378800002947D00C2140460DF0FDFDB36A002BFF
:103798005FD1736A13B92CE01B6853B31A79AA4234
:1037A800FAD1726D9F600132726504B0BDE8F0878E
:1037B80070683368B5FBF0F400FB145453F824C068
:1037C800BCF1000F15D0DCF80020137AAB420CD006
:1037D800116871B10B7A9446B3FBF0F200FB123218
:1037E800944206D1AB420A46F2D1DCF80040002CE4
:1037F8009AD15E480DF0E3FD326C12B905E012680B
:103808001AB11179A942FAD1BCE7F26BB5FBF2F90A
:1038180002FB1959012102A8009106F148010DF097
:103828001DFE9DF80830002B36D1B46B54F82930B2
:1038380004EB8902002B6CD01B68C8F8003054F8E0
:103848002930C3F80080736C01337364B36A002BAA
:103858009FD0306AF369B5FBF0F400FB145453F8B9
:1038680024C0BCF1000FC4D0DCF800201379AB42AF
:103878000DD011680029BCD00B799446B3FBF0F247
:1038880000FB12329442B4D1AB420A46F1D1DCF8C3
:103898000030002B85D1ACE7DDF80C90B9F1010FB1
:1038A80056D0B9F1005F59D24FEA890A50460DF057
:1038B8006CFD5246002104460FF020FA06F1500E26
:1038C800306C0023336488B19C4602460068137943
:1038D800B3FBF9F109FB113354F8231059B3096804
:1038E800116054F823301A600028EED1D6E90E0191
:1038F800704502D089000DF046FDB5FBF9F3C6E925
:103908000E4909FB135954F8293004EB8902002B9E
:1039180092D1336CC6F84080C8F800303BB11B79AF
:10392800F16BB3FBF1F001FB103344F8238006F18F
:103938004003136087E7316C1160314641F8402F2E
:1039480044F82310116809B144F82C209C46CBE7B1
:10395800B64600234EF8503F7446B1E7B9F1804FA0
:1039680001D30DF026FD0DF021FD00BFA43701089D
:10397800436C2DE9F0410446002B37D1036C00F16C
:1039880040054BB9636D013B6365BDE8F0811A687A
:103998001D461346002AF5D01A798A42F7D12868BD
:1039A800E26B0379B3FBF2F102FB11334FEA830CAC
:1039B800A16B066851F80C708C44BD4236D04EB1EC
:1039C8003779B7FBF2FC02FB1C77BB4202D041F807
:1039D800275006680C212E600DF0D5FC636C013B66
:1039E8006364636D013B6365BDE8F081C26B806B06
:1039F800B1FBF2F302FB131350F823504FEA830C88
:103A0800002DBFD02E68307988420DD037683546F2
:103A1800002FB7D038793E46B0FBF2F702FB170704
:103A2800BB42AFD18842F1D12868C1E74EB196F8C0
:103A380004E0BEFBF2F802FB18EE7345CAD041F869
:103A48002E5004F140039F424FF0000308BF266444
:103A5800CCF800300668BDE7F8B5436D2DED028B54
:103A680023B9BDEC028B9FED2C0BF8BD054602F087
:103A7800A9F906462C6C9FED288BECB1AB6A21792D
:103A88001BBB6B6A1BB941E01B68002B3ED01A793F
:103A98008A42F9D19B68A068F31A00EE103A9FEDAC
:103AA800207BB8EE400B20EE070BFFF781FA246865
:103AB80038EE008B002CE1D195ED157AB8EE477BF6
:103AC80088EE070BBDEC028BF8BDD5E90737B1FBD3
:103AD800F7FC07FB1C1C53F82CE0BEF1000F15D0B7
:103AE800DEF80020137999420CD0106870B1037980
:103AF8009646B3FBF7F207FB1232944506D199427A
:103B08000246F2D1DEF80030002BC3D106480DF092
:103B180056FC00BFAFF3008000000000000000006A
:103B28008DEDB5A0F7C6B03EA4370108704700BFB9
:103B3800253001F087B800BF10B540F203318EB0D0
:103B480000244FF60B7340F20342ADF808100299B7
:103B580009A8ADF81030ADF824300123ADF80C20D9
:103B68002246009407940C94CDE90544CDE90A4413
:103B780000F066FE04A8012322460399009400F091
:103B88005FFE09A800F06AFF10B901200EB010BD51
:103B980004A800F063FF80F00100C0B240000EB03E
:103BA80010BD00BF2DE9F04103239AB0012700247E
:103BB800149306463A4B1094119340F20453159708
:103BC800ADF84830CDE91647FFF7B6FFB8420546CD
:103BD80043D0022832D1334B40F601320DF12C0884
:103BE8000094CDF84A304FF60B73ADF818204046D4
:103BF80006993A46ADF82C3023460E94CDE918477D
:103C0800CDE90C4400F01CFE2146404600F032FF8E
:103C180010A906F13C0001F00FFF302003224FF0FD
:103C28007E5341460D930E93CDE90B02F26B06F1DC
:103C3800140000F027FB1AB0BDE8F08140F601320D
:103C4800184B0DF12C08ADF82C200B98CDF84A3004
:103C5800CDE9184700F0A4F8DAE71023114A06A9BD
:103C680006908DF828300DF12C080F4BCDF84A201E
:103C780009940294CDE90730CDE9180402A801F0AF
:103C88005BF90823029A03A94046ADF80C508DF859
:103C98000E40049505930B9400F0C0F8B8E700BFF8
:103CA80004020404040604030704010B2DE9F0418F
:103CB800394B0446394D40F20112012704F104083A
:103CC8002DED028B82B04560A36003F58133ADF81A
:103CD800042040F2027203F580730020A4F8252026
:103CE800E36040F606632782A4F8293084F8277039
:103CF80084F82B7000918DF8060002F001FA054651
:103D080002F068F86946064610BB0DB304F13000AE
:103D18008DF8067002F07AF9072D2ED104F11405FA
:103D28002046FFF73FFF284600F0E8FA2846B0EEA5
:103D3800408A00F0DFFAD0ED007AF8EE677A88EE74
:103D4800277A84ED0E7A02B0BDEC028BBDE8F081D3
:103D580004F1300002F05AF9072D13D1002EDDD0FE
:103D680004F1250000F090FE04F1290000F08CFE1B
:103D780004F1120000F074F9D0E74146204601F042
:103D880007FBCBE74146204601F002FB002EE7D1B6
:103D9800002DE5D0C2E700BF05070506050805099F
:103DA80010B584B00346012403A8ADF80C30ADF873
:103DB8000E4000F069FE214603A800F043FF2046AC
:103DC80002F006F8002103A800F03CFF204601F0AD
:103DD800FFFF214603A800F035FF04B010BD00BF67
:103DE80010B5C2F3002384B00C46017C8DF80D2079
:103DF80043EA4402FA2402238DF80C2003AA009413
:103E080001F02AF918B10124204604B010BD044677
:103E18000A2001F0DDFF204604B010BD034670B54E
:103E2800044684B043F8042BFA2507C983E8070041
:103E3800A1791E23009503AA1A31ADF80C3020464B
:103E48000223C9B2217401F007F910B1012004B0AE
:103E580070BD0A2001F0BCFF4FF4B8520095022350
:103E6800ADF80C20204603AA217C01F0F5F80028C3
:103E7800ECD10A2001F0ACFF41F202720095022356
:103E8800ADF80C20204603AA217C01F0E5F80028B3
:103E9800DCD10A2001F09CFF042200950223ADF832
:103EA8000C20204603AA217C01F0D6F80028CDD1A9
:103EB8000A2001F08DFF062200950223ADF80C20A0
:103EC800204603AA217C01F0C7F80028BED10A20A9
:103ED80001F07EFF41F2082200950223ADF80C2084
:103EE800204603AA217C01F0B7F80028AED10A20A9
:103EF8000A2601F06DFF0095022303AA217C2046C3
:103F0800ADF80C6001F0A8F800289FD1304601F008
:103F18005FFF23790C220095002B217C8DF80C2063
:103F2800204614BF622342236A448DF80D300223D1
:103F380001F092F8002889D1304601F049FFA368C2
:103F480000952046E268217C13432279DBB282F097
:103F5800010243EA82136279524202F020021343BB
:103F68000E228DF80D3002238DF80C2003AA01F0E3
:103F780073F800287FF46AAF304601F029FF102259
:103F880000950223ADF80C20204603AA217C01F0FD
:103F980063F800287FF45AAF304601F019FF122168
:103FA80000950223ADF80C1003AA217C204601F0ED
:103FB80053F800287FF44AAF304601F009FF012288
:103FC80009212046FFF70CFF003818BF01203EE703
:103FD800F0B5214D87B000240126102702A94FF41F
:103FE800805228460194CDE90267CDE9046408F0BF
:103FF800A1F8642002F018FB022302A94FF48052B2
:10400800284602930594CDE9037608F093F8042333
:1040180002A94FF4805228460397CDE904340323BC
:10402800029308F087F840F23223042202A92846B6
:10403800019310230496CDE90223019B4FF480528B
:10404800059308F077F840F60601284608F092F83C
:10405800204607B0F0BD00BF340400240000000073
:1040680070B51F4B88B008221E4E00214FF4006423
:104078001A614FF0020C03920A225E602026069213
:104088004022054699600320196210215C620124D0
:10409800C3E905624FF4C072DC60DA6107229FED64
:1040A8000E7BCDE900C20422CDE904016946181D42
:1040B800029283ED0A7B08F013F838B92846FFF717
:1040C80087FF003818BF012008B070BD204608B02F
:1040D80070BD00BFAFF300800010000000000000BA
:1040E80030040024404100525E4A0023F0B51468B1
:1040F8008FB00A93002C40F0B2805B4B012103265D
:104108000C2511600227D3F8D420584842F4805275
:10411800C3F8D420D3F8D42002F480520092009A35
:10412800D3F8E02042F01002C3F8E020D3F8E020F2
:1041380002F010020192019AD3F8E02042F0400206
:10414800C3F8E020D3F8E02002F040020292029A7D
:10415800D3F8E02042F00802C3F8E020D3F8E020CA
:1041680002F008020392039AD3F8E02042F4807226
:10417800C3F8E020D3F8E02002F480720492049A95
:10418800D3F8E02042F08002C3F8E020D3F8E02022
:1041980002F080020592059AD3F8E02042F020024E
:1041A800C3F8E020D3F8E02002F020020692069A35
:1041B800D3F8E02042F00402C3F8E0204FF68372FF
:1041C800D3F8E0300B9603F004030C950793022311
:1041D800079908A9CDE9082303F0D0FA48F2371364
:1041E80008A9234808930C950997CDE90A4603F0D6
:1041F800C5FA4CF2037308A91E480893CDE909745F
:10420800CDE90B6503F0BAFA40F2FF6308A91A4832
:104218000893CDE90974CDE90B6503F0AFFA4FF6C1
:104228000C7308A915480893CDE90974CDE90B6505
:1042380003F0A4FA4FF63F0308A911480893CDE903
:104248000974CDE90B6503F099FA202308A90B48F6
:1042580009970C950893CDE90A4603F08FFA0FB039
:10426800F0BD00BF2C04002400440258001002587E
:1042780000180258000C025800200258001C02586E
:104288000014025830B5184C85B01546046004F186
:10429800080EEC460FC98EE80F00D4ED047AF5EE4F
:1042A800C07A8CE80F00F1EE10FA1ADDB7EE006A5A
:1042B80094ED057A27EE277AC6EE276A84ED0D7A03
:1042C800C4ED0C6A6DB1204640F8185F01F0B6FCE9
:1042D800064903690020064A2162A262E36005B02C
:1042E80030BD012005B030BD680400240020003036
:1042F8000000003000680830704700BF00681830C0
:1043080001F09EBC064B302003214FF07E52C3E9DA
:104318000201002000211A615A61C3E906017047B1
:10432800680400244F4B02689A4200D070474E4BF5
:10433800D3F8E81030B541F000514C4C85B0D4F8B2
:104348004821C3F8E810D3F8E81001F000510191B2
:104358000199D3F8E01041F00101C3F8E010D3F857
:10436800E03003F001030293029B32F002033ED0D7
:10437800013A012A6BD9D4F84C31012B0AD000221A
:104388003620114602F07AF9362005B0BDE83040F3
:1043980002F0B0B9D4F8483133F0020235D0013B0D
:1043A800012BECD8002344223149C4F89830C4F8D2
:1043B800B0304FF480632F4DC4F89C304FF4005355
:1043C8002846C4E923124022C4F894204FF400621E
:1043D800C4E928234FF480724FF48033C4E92A23B8
:1043E80002F026FC80B9E560C4F8C440C7E74FF482
:1043F8008062032303A8ADF80C208DF80E3000F07E
:1044080043FBD4F84821B3E7FEE743232262A263C3
:104418004022A3614FF48063E2614FF4006263625B
:104428004FF40053144D154928466161C4E90A2325
:104438004FF480724FF48033C4E90C2302F0F8FB88
:1044480020B9D4F84831A560E464A8E7FEE74FF442
:10445800A062032303A8ADF80C208DF80E3000F0FD
:1044680013FB88E70074004000440258A0040024AD
:10447800280402402C050024B4040024100402403F
:10448800014802F067BF00BFB4040024014802F0ED
:1044980061BF00BF2C05002410B5054C204602F072
:1044A80013FA04F58270BDE8104007F0FBBF00BFA7
:1044B800A004002430B58C463A4C8DB03A4D0460C7
:1044C80004F5A27EBCE80F00AEE80F00DCF800306F
:1044D80020462560CEF8003002F098F90023D4F881
:1044E8004C510393B5B9022304930022D4F85431F4
:1044F800D4F848119B1A18BF0123CDE906225B00A6
:1045080031F0020205932DD00139012935D9002057
:104518000DB030BD1622012D0492E6D1234A009336
:10452800C4F80C31C4F80421C4F81431C4F81C319F
:10453800CDE9013301F0E2FDD4F844314BF6803186
:10454800024604F58270C4F80851002B08BF0B46D8
:10455800B2FBF3F3C4F8103107F024FE0346B0B100
:104568000120D5E703A90F4802F0E2F90028F7D1A6
:10457800D4F8481101390129C9D8102203A90948DA
:1045880002F0D6F9003818BF01200DB030BD202246
:10459800694604F582700293009208F03BF80028FF
:1045A800A3D0DDE7A0040024007400400010004000
:1045B8002DE9F0410768D7F84C6106BB0C46D7F8DF
:1045C80050119046B1FA81F134F002034FEA5111CB
:1045D8004FEAC10505D0013C012C14D93046BDE88D
:1045E800F081134631462A463846013C02F052F91A
:1045F8003146384602F020F9012CEFD803E00126B5
:104608003046BDE8F08143462A461021384602F07C
:1046180041F91021384602F00FF93046BDE8F08123
:1046280084460FC98CE80F009CF800300B2B37D05C
:1046380000B59CF801E091B0BEF10F0F2DD802290A
:104648003FD0032904D0A1F10101B1FA81F1490950
:10465800DCF808200C91012A05D0A2F10202B2FA76
:1046680082F252095200DCF80C100D92022906D091
:10467800032904D0A1F10101B1FA81F149090A2BFA
:104688000E910ED900231846CCF8103001230BA93F
:1046980003FA0EF30B9303F071F811B05DF804FB05
:1046A80070475B4A591E02EB8323CCF81030092966
:1046B80000F29F80DFE801F08E7F7061524334255D
:1046C80016071121C4E7534B5348D3F8E02042F4AE
:1046D8008062C3F8E020D3F8E03003F480630A93E3
:1046E8000A9BD3E74B4B4D48D3F8E02042F40072C5
:1046F800C3F8E020D3F8E03003F400730993099B72
:10470800C4E7444B4648D3F8E02042F48072C3F82B
:10471800E020D3F8E03003F480730893089BB5E7F2
:104728003C4B4048D3F8E02042F08002C3F8E02038
:10473800D3F8E03003F080030793079BA6E7354BD7
:104748003948D3F8E02042F04002C3F8E020D3F81B
:10475800E03003F040030693069B97E72D4B334860
:10476800D3F8E02042F02002C3F8E020D3F8E0308C
:1047780003F020030593059B88E7264B2C48D3F8C4
:10478800E02042F01002C3F8E020D3F8E03003F054
:1047980010030493049B79E71E4B2648D3F8E020C6
:1047A80042F00802C3F8E020D3F8E03003F0080331
:1047B8000393039B6AE7174B1F48D3F8E02042F0A6
:1047C8000402C3F8E020D3F8E03003F004030293B6
:1047D800029B5BE70F4B1948D3F8E02042F0020236
:1047E800C3F8E020D3F8E03003F002030193019B03
:1047F8004CE7084B0648D3F8E02042F00102C3F822
:10480800E020D3F8E03003F001030093009B3DE77C
:104818000000025800440258002802580024025898
:1048280000200258001C02580018025800140258B0
:1048380000100258000C02580008025800040258E0
:1048480010B592B00180ADF80410C9B2149C0B29C0
:10485800C460C0E901232FD090F801E08446BEF17E
:104868000F0F29D8022A39D0032A04D0A2F1010255
:10487800B2FA82F25209012B0E9205D0A3F102037B
:10488800B3FA83F35B095B00022C0F9306D0032C69
:1048980004D0A4F10104B4FA84F464090A29109438
:1048A8000CD900231846CCF8103001230DA903FABF
:1048B8000EF30D9302F062FF12B010BD5B4B4A1E5F
:1048C80003EB8123CCF81030092A00F29F80DFE83F
:1048D80002F08E7F70615243342516071122CAE711
:1048E800534B5448D3F8E02042F48062C3F8E020E8
:1048F800D3F8E03003F480630C930C9BD5E74C4B62
:104908004D48D3F8E02042F40072C3F8E020D3F811
:10491800E03003F400730B930B9BC6E7444B474806
:10492800D3F8E02042F48072C3F8E020D3F8E030F6
:1049380003F480730A930A9BB7E73D4B4048D3F8CA
:10494800E02042F08002C3F8E020D3F8E03003F022
:1049580080030993099BA8E7354B3A48D3F8E02030
:1049680042F04002C3F8E020D3F8E03003F04003FF
:104978000893089B99E72E4B3348D3F8E02042F080
:104988002002C3F8E020D3F8E03003F020030793B7
:10499800079B8AE7264B2D48D3F8E02042F0100207
:1049A800C3F8E020D3F8E03003F010030693069B29
:1049B8007BE71F4B2648D3F8E02042F00802C3F8F3
:1049C800E020D3F8E03003F008030593059B6CE77B
:1049D800174B2048D3F8E02042F00402C3F8E02047
:1049E800D3F8E03003F004030493049B5DE7104B15
:1049F8001948D3F8E02042F00202C3F8E020D3F8C7
:104A0800E03003F002030393039B4EE7084B07488B
:104A1800D3F8E02042F00102C3F8E020D3F8E030F8
:104A280003F001030293029B3FE700BF0000025816
:104A38000044025800280258002402580020025856
:104A4800001C02580018025800140258001002589E
:104A5800000C0258000802580004025808B5012149
:104A680043780069994089B203F0C2F9003818BF49
:104A7800012008BD01230A464178006903FA01F1C3
:104A880089B203F0BBB900BF8378022B30B5044666
:104A98008FB039D0032B00F0D180A3F10102B2FA14
:104AA80082F25209E3780A92012B05D0A3F102039E
:104AB800B3FA83F35B095B0000222046CDE90B3291
:104AC80001F090FC0546204601F094FC23780990FB
:104AD800082B13D8DFE803F02D405366798C9F0527
:104AE8001A00574BD3F8E02042F08002C3F8E020C8
:104AF800D3F8E03003F080030793079B09A9284601
:104B080002F03CFE0FB030BD1122CBE74C4B09A997
:104B18002846D3F8E02042F48072C3F8E020D3F8A6
:104B2800E03003F480730893089B02F027FE0FB06F
:104B380030BD434B09A92846D3F8E02042F00102D2
:104B4800C3F8E020D3F8E03003F001030093009BA2
:104B580002F014FE0FB030BD394B09A92846D3F82E
:104B6800E02042F00202C3F8E020D3F8E03003F07E
:104B780002030193019B02F001FE0FB030BD304BE0
:104B880009A92846D3F8E02042F00402C3F8E0203F
:104B9800D3F8E03003F004030293029B02F0EEFD29
:104BA8000FB030BD264B09A92846D3F8E02042F0C3
:104BB8000802C3F8E020D3F8E03003F008030393B9
:104BC800039B02F0DBFD0FB030BD1D4B09A9284641
:104BD800D3F8E02042F01002C3F8E020D3F8E03028
:104BE80003F010030493049B02F0C8FD0FB030BD1E
:104BF800134B09A92846D3F8E02042F02002C3F855
:104C0800E020D3F8E03003F020030593059B02F081
:104C1800B5FD0FB030BD0A4B09A92846D3F8E020EE
:104C280042F04002C3F8E020D3F8E03003F040033C
:104C38000693069B02F0A2FD0FB030BD1A4631E77D
:104C48000044025870B506460D4601F0CBFB0446F9
:104C5800304601F0CFFB2A1E0146204618BF01222C
:104C6800BDE8704003F0CAB870B5002386B01222C0
:104C780004460393CDE901230368032B01D80423D9
:104C88000493261D0634304601F0ACFB0546304639
:104C980001F0B0FB034669462846009302F06EFD1A
:104CA800204601F09FFB034620461C4601F0A2FB6C
:104CB800694603462046009302F060FD06B070BDC9
:104CC800634A0368934210B58CB028D0614A934276
:104CD80058D0614A934200F09480604A934201D0D0
:104CE8000CB010BD5E4C5F48D4F8E03043F00203CE
:104CF800C4F8E030D4F8E03003F002030A930A9BCA
:104D0800FFF7B2FFD4F8F43043F08003C4F8F4306E
:104D1800D4F8F43003F080030B930B9BE0E7504C7E
:104D28005148D4F8E03043F00203C4F8E030D4F836
:104D3800E03003F002030193019BFFF795FFD4F8DD
:104D4800E83000221F2043F400131146C4F8E8306D
:104D5800D4F8E83003F400130293029BD4F8D83057
:104D680043F00103C4F8D830D4F8D83003F0010375
:104D78000393039B01F082FC1F200CB0BDE8104098
:104D880001F0B8BC364C3948D4F8E03043F0800321
:104D9800C4F8E030D4F8E03003F080030493049BB7
:104DA800D4F8E03043F00203C4F8E030D4F8E0303F
:104DB80003F002030593059BFFF756FFD4F8E8308C
:104DC8000022212043F480031146C4F8E830D4F8C7
:104DD800E83003F480030693069BD4F8D83043F0F8
:104DE8000103C4F8D830D4F8D83003F0010307938E
:104DF800079B01F043FC21200CB0BDE8104001F0F6
:104E080079BC1B48FFF730FF154B00224820D3F828
:104E1800E840114644F40004C3F8E840D3F8E840F9
:104E280004F400040894089CD3F8D84044F0010422
:104E3800C3F8D840D3F8D83003F001030993099B8D
:104E480001F01CFC48200CB0BDE8104001F052BC39
:104E58000054004000580040005C0040001C00580E
:104E680000440258940800240C060024E406002498
:104E7800BC070024F0B5002287B0184B1021CDF8EC
:104E880002206F46CDF806209C46CDF80A206E46D3
:104E9800CDF80E200CF11805CDF812200CF1300ECB
:104EA800ADF81620FF220E4B6C46ADF800101A70B4
:104EB8000FCFACE80F0097E803008CE803000FCE93
:104EC8000FC596E8030085E803000FCCAEE80F0095
:104ED80094E803008EE8030007B0F0BD0400002446
:104EE8000806002410B5EFF3108472B6074B1A7841
:104EF800120602D504B962B610BD1B78D820044A40
:104F08005BB200FB032002F025FAF3E70806002451
:104F180020060024014803F0F5BD00BF98060024D0
:104F2800014803F0EFBD00BF70070024014803F0FB
:104F3800E9BD00BF480800242DE9F0410F68D825D5
:104F48003C4E84B007FB05F5032F06EB0503036011
:104F580058DCCA680C46012A54D84FD020689C46B1
:104F680061684FF0D808A2680DF1100EE36808FBDD
:104F78000768ACE80F00304B227C8CF80020D8F88A
:104F880008C00FCB0EE90F000EEB8703BCF1010F31
:104F980053F8103CC8F88C3042D0BCF1020F35D021
:104FA800BCF1000F08D101F0A7F8244B98420CBFC0
:104FB800234B244BC8F890308C35D823217C002211
:104FC80003FB0763012035444900C3E9260228464C
:104FD800C3F89410C3E92822C3E92A2203F08AFB04
:104FE80080B90146284603F099FD58B9014628467C
:104FF80003F0BEFD003818BF012004E00A7C103A17
:10500800672AABD9012004B0BDE8F08101F074F83B
:105018000A4B98420CBF0C4B0C4BC8F89030CBE7AE
:1050280001F06AF8054B98420CBF094B094BC8F8C8
:105038009030C1E70C06002460370108000E2707EE
:105048005F4390608A62E030200BA0101A0980103C
:105058002D0FB0303211D0202DE9F041D0F800806A
:1050680082B00D4617461E4608F18C04204603F010
:1050780051FD2028FAD1D8F80C3073B96D002046BC
:10508800089C33463A46A9B2009403F089FB0038DD
:1050980018BF012002B0BDE8F081089B32463946AE
:1050A800204603F049FCF2E7044B10221A7483F8F7
:1050B800E82083F8C02183F8982270470C06002462
:1050C80030B5002395B04FF48071062204460B9347
:1050D80006921393CDE90C13CDE90E33CDE91133C4
:1050E80001F00EF807282AD004F1100541F28832A1
:1050F80006A9284604F06EFB28B1012384F85C3029
:10510800012015B030BD0223102206A928460292BC
:105118000022CDE90033012303934FF48003CDE946
:10512800042305224FF0807306926A460F9341F2DA
:10513800883304F0DFFC0028DFD115B030BD03232D
:1051480084F85C30DCE700BF70B50023A4B04FF0F2
:1051580080724FF480750446ADF806301B93CDE994
:105168001E320122CDE91C53CDE92023CDE922339B
:10517800002942D0F02300F1100516AEADF8063034
:10518800C02341F2883231462846169304F022FBA8
:1051980028B1012384F85C30012024B070BD41F2AD
:1051A80088320DF10601284604F082FB03460028E8
:1051B800EFD14FF48071052228460125089210226C
:1051C80010930D93159302930595CDE90E139FED5A
:1051D8001E7B4FF08071CDE91333119141F2883372
:1051E80008A9CDE9035202AA8DED067B04F082FCE2
:1051F8000028D2D084F85C50CEE700F1100516AE36
:10520800612341F2883231462846169304F0E2FAC7
:105218000028BED141F288320DF10601284604F07B
:10522800D5FB0028B5D1BDF80630204623F0780319
:1052380043F04003ADF80630FFF742FF00289FD047
:10524800A7E700BFAFF300800000000000004000A7
:105258002DE9F04F00234FF4807601254FF0807838
:1052680004462DED028BABB08DF8073021931393D4
:105278001B9322961C95CDF89480CDE92333CDE974
:105288002653CDE92833CDE91463CDE91633CDE9AA
:10529800193306230E9300F033FF072808D004F1D2
:1052A800100741F288320EA9384604F093FA40B14B
:1052B800012384F85C3001202BB0BDEC028BBDE8E3
:1052C800F08F02234FF010094FF0050A08AA0EA923
:1052D80038460B95CDF85C80CDF82890CDF838A0ED
:1052E8009FED298BCDE9083341F288338DED0C8B86
:1052F80004F000FC0028DBD141F2883238461CA9B2
:1053080004F068FA0028D3D14FF0400B41F28832FC
:105318000DF1070138468DF807B004F0C9FA0028E6
:10532800C6D141F288331CA902AA3846CDF870A02C
:10533800CDF89480CDE902BBCDE904958DED068BBF
:1053480004F0D8FB03460028B2D1139308AA1B9394
:105358000EA938461496CDF838A0CDF85C80CDF863
:1053680028900B95CDE91533CDE91933CDE90835EA
:1053780041F288338DED0C8B04F0BCFB00289BD0E8
:1053880084F85C5097E700BF000000000000400070
:105398002DE9F0435C4CA3B00E46046000F0B0FE6B
:1053A800072800F0A480306825467168B26807C5F0
:1053B800B389284620F8043B267B677B04F0ECF988
:1053C800E0B9524B012E4FF00108E06123610CBF98
:1053D8004FF400034FF48013C4E9058893FAA3F34C
:1053E800B3FA83F34FF48079013BC4F82490C4E9FD
:1053F8000B00281D236204F061F938B1012384F8F9
:105408005C300126304623B0BDE8F08366230B905C
:10541800139041F2883206A90693CDE90C90CDE9A4
:105428000E00CDE91100281D04F0D4F90028E5D1BB
:10543800992341F2883206A9281D069304F0CAF977
:105448000028DBD105231C9019906A4614934FF06D
:105458008073219014A91D931023CDF80C8002931A
:1054680041F288339FED247BCDE91A90CDE91F00E6
:10547800CDE90008281D8DED047B04F03BFB0028D6
:10548800BCD131462046FFF75FFE0028B6D1204642
:10549800FFF7DEFE06460028B0D1002FB2D1EB237D
:1054A80006AA14A9281D14934FF44063CDF86890F8
:1054B8001B934FF40053189617934FF440431C93D3
:1054C800A0231693062319934FF080539FED0C7B6E
:1054D80021934FF04073CDE91F661D938DED067B38
:1054E80004F096FB00288DD084F85C8089E70323BC
:1054F80084F85C3085E700BF000000000000400031
:105508000000000000000000700900240050005254
:105518002DE9F04F8FB0414B0024026800AF9A424A
:105528007C63C7E90944C7E90B4403D03C37BD464F
:10553800BDE8F08F3A4B40F609213A48EA46D3F8DD
:10554800D42007F11C0607F1220B4FF0020942F4A0
:1055580080424FF00308C3F8D420D3F8D42002F4D3
:105568008042BA60BA68D3F8E02042F04002C3F83B
:10557800E020D3F8E02002F04002FA60FA68D3F89D
:10558800E02042F02002C3F8E020D3F8E02002F047
:1055980020023A613A69D3F8E02042F01002C3F8D9
:1055A800E020D3F8E02002F010027A617A69D3F89B
:1055B800E02042F00202C3F8E020D3F8E030F861BE
:1055C80003F002033984BB61174B7B60BB697B68BE
:1055D80053F8040F7B6000F005FF7B6805461868E8
:1055E80000F008FF16F8013B786207F1240128460D
:1055F800C7F830807B63C7E90A9402F0BFF85E45BC
:10560800E5D100225C20114601F038F85C2001F059
:1056180071F83C37D546BD46BDE8F08F00500052C2
:10562800004402580A0A0909CC090024114B0268EF
:105638009A4200D07047104A70B5D2F8D4300F4C57
:1056480023F4804304F11806C2F8D43054F8040F48
:1056580000F0C8FE0546206800F0CCFE014628464A
:1056680002F09AFAB442F1D15C20BDE8704001F032
:105678004FB800BF0050005200440258CC09002423
:10568800014804F053BB00BF80090024084B1A1DD1
:10569800981D03F1080110B49C1C9A6603F10A02D4
:1056A800C3E91834C3E91B015DF8044B5A67704716
:1056B800700900242DE9F043821D05468BB0031DB7
:1056C80005F10A010830CDE9052305F10C02AB69A3
:1056D800CDE907010992002B3ED0EB69B3FA83F8B4
:1056E8004FEA58180123022205AE0AAF4FF0060907
:1056F8000393CDE9012313E02B680BB3012B02D1EF
:1057080022B30A230493204600F074FE0346204681
:10571800009300F067FE694602F030F8BE4212D0EE
:1057280056F8044B2B7922789342E5D1697963784E
:105738009942E1D1B8F1000FF0D02B68002BDDD1F0
:10574800CDF81090DFE70BB0BDE8F0836378022B4B
:105758000CBF08230A23D5E74FF00108C2E700BFB2
:10576800A04A0368934270B505468AB07FD02032BC
:1057780093427CD09C4A934204D02032934201D079
:105788000AB070BD994C9A48D4F8E03043F0010350
:10579800C4F8E030D4F8E03003F001030593059B2A
:1057A800D4F8E03043F00803C4F8E030D4F8E0302F
:1057B80003F008030693069BD4F8E03043F0400357
:1057C800C4F8E030D4F8E03003F040030793079BB7
:1057D800D4F8F03043F40003C4F8F030D4F8F030D3
:1057E80003F400030893089BFFF764FFD4F8D8205C
:1057F800804B42F001022968D3F85C02C4F8D82033
:10580800D4F8D82002F001020992774A099C914203
:1058180000F0AB80D3F88022013A18BF0122920130
:10582800002840F0CC807448582103F22C4403F53A
:105838004775C3F82C0400232046C4E901124FF42D
:1058480080524FF48061636262614FF48042C4E920
:1058580003314FF48073C4E906234FF40033236205
:1058680001F0E6F9002800F09580FFBEFEE75F4CE6
:10587800604ED4F8E030304643F00103C4F8E0301D
:10588800D4F8E03003F001030093009BD4F8E03033
:1058980043F01003C4F8E030D4F8E03003F010030C
:1058A8000193019BD4F8E03043F04003C4F8E030A2
:1058B800D4F8E03003F040030293029BD4F8F030B0
:1058C80043F48003C4F8F030D4F8F03003F48003D4
:1058D8000393039BFFF7EEFED4F8D830296843F012
:1058E8000103404A3068C4F8D8309142D4F8D8301F
:1058F80003F001030493049B27D0736A013B18BF8C
:1059080001239B01002852D13B4A06F5E87458212F
:10591800C036C6F8102100222046C4E901134FF40E
:1059280080534FF48061626263614FF48073C4E90D
:1059380003214FF48042C4E906234FF40033236265
:1059480001F076F908B3FFBEFEE7336A013B18BFE2
:1059580001239B0118BB02F5284206F5AC745721B8
:1059680028360C32C6F83021D5E7D3F87C22013A24
:1059780018BF0122920158BB2048572103F56D74C6
:1059880003F52175C3F8B40355E7C6E92044A663B7
:105998000AB070BDC5E92044A5630AB070BD184AB5
:1059A80006F5AC7459212836C6F83021B3E7154AF4
:1059B80006F5E8745A21C036C6F81021ABE711483D
:1059C8005A2103F22C4403F54775C3F82C0432E737
:1059D8000B48592103F56D7403F52175C3F8B40319
:1059E80029E700BF04580140045C01400044025804
:1059F800440C0024E809002428000240100002405A
:105A08005800024070000240014801F0A3BC00BFEA
:105A1800400B0024014801F09DBC00BFB80B0024D6
:105A2800014801F097BC00BF9C0D0024014801F01B
:105A380091BC00BF140E00242DE9F04F0C684FF400
:105A48001777794E87B004FB07F7012C06EB070898
:105A5800C0F8008000F39F804FF0000907F512732B
:105A68000D468E4646F803903344C446C3F8049066
:105A7800C8F8509268A3D3E9002369A1D1E90001CD
:105A8800CDE9022306AB03EB8403CDE9040153F807
:105A980010BC53F808ACBEE80F00ACE80F00BEE835
:105AA8000F00ACE80F009EE80300C8F828B0C8F85B
:105AB800C0A08CE803002B69042B0DD8DFE803F0A5
:105AC8007F89930376004FF417734BF6803203FBFC
