:020000040800F2
:10000000000002205D030008590300087D39000844
:1000100059030008590300085903000800000000B4
:10002000000000000000000000000000590300086C
:1000300059030008000000005903000801390008B6
:100040005903000859030008590300085903000820
:100050005903000859030008590300085903000810
:10006000590300085903000859030008A136000885
:10007000AD36000859030008B9360008C536000837
:1000800029D200087D2B00085903000859030008F5
:1000900059030008590300085903000859030008D0
:1000A00059030008590300085903000859030008C0
:1000B00015C6000821C600082DC60008AD2B000893
:1000C00059030008B92B000859030008CDBE0008E9
:1000D000D9BE000839D0000869D00008A1D00008B6
:1000E00059030008590300080000000059030008E4
:1000F0005903000859030008590300085903000870
:10010000590300085903000839C60008E5BE000875
:10011000D9D0000811D10008A12100085903000816
:10012000892100089521000809BF00083DBF00088B
:100130005DD200085903000859030008590300085C
:1001400000000000000000000000000000000000AF
:1001500059030008590300085903000849D1000851
:10016000C52B00085903000811390008353900086B
:1001700059030008593900085903000859030008B9
:10018000590300085903000881D10008B9D10008BB
:10019000F1BE0008FDBE000859030008590300081D
:1001A00059030008590300085903000859030008BF
:1001B00019330008590300085903000859030008BF
:1001C000590300085903000859030008590300089F
:1001D000590300085903000859030008590300088F
:1001E000590300085903000859030008590300087F
:1001F000590300085903000859030008590300086F
:10020000590300085903000859030008590300085E
:10021000590300085903000859030008590300084E
:1002200059030008590300085903000800000000A2
:100230005903000859030008000000005903000892
:10024000590300085903000859030008590300081E
:10025000590300085903000859030008590300080E
:1002600059030008590300085903000859030008FE
:100270005903000859030008F1D1000800000000EC
:100280005903000859030008590300080000000042
:08029000000000005903000802
:1002980053B94AB9002908BF00281CBF4FF0FF31E5
:1002A8004FF0FF3000F00CB8ADF1080C6DE904CE4A
:1002B8000FF034FDDDF804E0DDE9022304B07047F7
:1002C800704700BF0348044B834202D0034B03B17D
:1002D80018477047CC030024CC030024000000001A
:1002E8000548064B1B1AD90F01EBA301491002D090
:1002F800034B03B118477047CC030024CC030024F8
:100308000000000010B5064C237843B9FFF7DAFF68
:10031800044B13B10448AFF300800123237010BDD0
:10032800D003002400000000681F010808B5054B31
:100338001BB105490548AFF30080BDE80840FFF749
:10034800CFBF00BF00000000D4030024681F0108CD
:10035800FEE700BF0B480C4A904203D0121A0B4923
:100368000FF084FC0A480B4A904203D0121A00216D
:100378000FF0F4FB03F056FD0FF052FC00F000FB09
:10038800FEE700BF00000024CC030024981F0108EA
:10039800D0030024C8310024704700BF00000000CB
:1003A800B5EE087BB4EEC70BF1EE10FA08D59FED59
:1003B800107B20EE070B9FED107B20EE070B70479C
:1003C8009FED0F1B08B530EE470B0EF0EDFF9FEDCC
:1003D8000E7B20EE070B0EF093FE9FED0D7B20EEBB
:1003E800070B9FED057B20EE070B08BDAFF30080E0
:1003F800C5BA1E206040B5402E153868C70F403F6B
:10040800CC47B075C243F13F9EC5BAD77C1FE1BF48
:1004180027182E3090E09F40B5EE087BB4EEC70B4E
:10042800F1EE10FA08D59FED107B20EE070B9FED3B
:10043800107B20EE070B70479FED0F1B08B530EEC1
:10044800470B0EF0B1FF9FED0E7B20EE070B0EF071
:1004580057FE9FED0D7B20EE070B9FED057B20EEF1
:10046800070B08BDAFF30080F3F8DDB3A4D4B140A7
:100478002E153868C70F403F4624F3E4E9F9F13FE9
:10048800444EFA7C434CDBBF6DF5CC0DF7BE9A4069
:10049800B4EE007BB4EEC70BF1EE10FA08D59FED71
:1004A800107B20EE070B9FED107B20EE070B7047AB
:1004B8009FED0F1B08B530EE470B0EF075FF9FED53
:1004C8000E7B20EE070B0EF01BFE9FED0D7B20EE42
:1004D800070B9FED057B20EE070B08BDAFF30080EF
:1004E800E075388386249A402E153868C70F403F38
:1004F8008D94835CBAC9EF3F4D87FCBD4AD6E5BFF2
:10050800E075388386246A40B4EE007BB4EEC70BEE
:10051800F1EE10FA08D59FED107B20EE070B9FED4A
:10052800107B20EE070B70479FED0F1B08B530EED0
:10053800470B0EF039FF9FED0E7B20EE070B0EF0F8
:10054800DFFD9FED0D7B20EE070B9FED057B20EE79
:10055800070B08BDAFF300808009B5831E4C7740B8
:100568002E153868C70F403F38A9FBF0E421E13F5A
:10057800BC0A960E2826F7BF8009B5831E4C474053
:10058800B4EE007BB4EEC70BF1EE10FA08D59FED80
:10059800107B20EE070B9FED107B20EE070B7047BA
:1005A8009FED0F1B08B530EE470B0EF0FDFE9FEDDB
:1005B8000E7B20EE070B0EF0A3FD9FED0D7B20EECA
:1005C800070B9FED057B20EE070B08BDAFF30080FE
:1005D800DF9D47401D2448402E153868C70F403F0F
:1005E8008380596ACC1BD03F6D80F7F46C1FFFBF26
:1005F800DF9D47401D241840B4EE007BB4EEC70BC6
:10060800F1EE10FA08D59FED107B20EE070B9FED59
:10061800107B20EE070B70479FED0F1B08B530EEDF
:10062800470B0EF0C1FE9FED0E7B20EE070B0EF080
:1006380067FD9FED0D7B20EE070B9FED057B20EE00
:10064800070B08BDAFF30080612614FABE60D240E4
:10065800B4FF29FC09DC3B3F519EFA1F0E8EF13F87
:10066800F68902B8AF47E2BF612614FABE60A2401D
:10067800B6EE047BB4EEC70BF1EE10FA08D59FED89
:10068800107B20EE070B9FED107B20EE070B7047C9
:100698009FED0F1B08B530EE470B0EF085FE9FED62
:1006A8000E7B20EE070B0EF02BFD9FED0D7B20EE51
:1006B800070B9FED057B20EE070B08BDAFF300800D
:1006C80042F0D39A44799F40B4FF29FC09DC3B3FB0
:1006D8001F0F8952303BEE3F17D37A3AECDAE6BF68
:1006E8002976C4E0CAAB9340B5EE007BB4EEC70BE5
:1006F800F1EE10FA08D59FED107B20EE070B9FED69
:10070800107B20EE070B70479FED0F1B08B530EEEE
:10071800470B0EF049FE9FED0E7B20EE070B0EF007
:10072800EFFC9FED0D7B20EE070B9FED057B20EE88
:10073800070B08BDAFF30080589442F7C2317F40E1
:10074800B4FF29FC09DC3B3FC61B789AF574E93FE6
:10075800D57511D7C8E5F1BF589442F7C2315F404B
:10076800B6EE087BB4EEC70BF1EE10FA08D59FED94
:10077800107B20EE070B9FED107B20EE070B7047D8
:100788009FED0F1B08B530EE470B0EF00DFE9FEDE9
:100798000E7B20EE070B0EF0B3FC9FED0D7B20EED9
:1007A800070B9FED057B20EE070B08BDAFF300801C
:1007B800E8C9783732145240B4FF29FC09DC3B3FC2
:1007C8004C5A48C473C9F03F74B916F18F04DEBFA0
:1007D800DC2E35534B1E4B40B5EE007BB4EEC70BF9
:1007E800F1EE10FA08D59FED107B20EE070B9FED78
:1007F800107B20EE070B70479FED0F1B08B530EEFE
:10080800470B0EF0D1FD9FED0E7B20EE070B0EF08F
:1008180077FC9FED0D7B20EE070B9FED057B20EE0F
:10082800070B08BDAFF30080D1089D13C3104140EA
:10083800B4FF29FC09DC3B3F0E766A6FFEF3E03F0C
:100848007198EB7FDDA1F2BFD1089D13C310214041
:100858002DE9F0410D1E28DB0268044683689B1AC7
:10086800AB4201D3BDE8F08143682846A3EB0208F8
:100878000EF08FFB0646D4E90072D21B002A08DC72
:1008880087B906EB08033544C4E90063A560BDE8F1
:10089800F08139460FF048F9A168C91B38460EF0B7
:1008A80076FBEEE7A168C91BF8E701480EF088FB64
:1008B800CC0001082DE9F84FD0E900956FF000460B
:1008C800A5EB0903B34255D0044688469346A1EBED
:1008D800090A002B48D0B3EB430F4FEA430245D92E
:1008E8003046A5EB08050EF054FB9BF80030BAF132
:1008F800000F07460AF1010B00F80A3028DC002D2A
:10090800834409DC5D44B9F1000F15D13E44C4E9C4
:100918000075A660BDE8F88F2A46414658465D44F2
:100928000FF0A4F9B9F1000FF0D005E02A465D44B4
:10093800414658460FF09AF9A168A1EB09013E44D7
:1009480048460EF024FBA660C4E90075BDE8F88FA0
:10095800524649460FF0E8F8002DBB44E6DCA16892
:100968005D44A1EB0901EAE70126B9E7964228BFF1
:100978001646B5E701480EF023FB00BFDC0001086E
:100988002DE9F04FCA48ADF69C0D00F053FF002149
:10099800C748002401F00AF84FF4707200210DF5E1
:1009A8009B600FF0DBF8182103A80594C14D0DF5E5
:1009B8003E790DF543780DF5A0660DF1480B0DF164
:1009C8005C0ACDE98A44CDE98C44CDE98E44CDE971
:1009D8000344FFF73DFF182108940DEB0100CDE912
:1009E8000644FFF735FF0DF59B6C0FCDA9E80F0006
:1009F80005F1180E05F1400755F8043BC9F8003019
:100A08000DF170090FCDA8E80F002B683AADC8F8B2
:100A180000300DF18408BEE80F00ACE80F00BEE816
:100A28000F00ACE80F009EE803008CE803000FCF2E
:100A38000FC60FCF0FC697E80300BEAA30AF86E8EF
:100A480003000DF59B6190A800F010FA4FF60B71AA
:100A58000DA82BABC46026AA018035AEADF84810AE
:100A68001594ADF85C101A94ADF870101F94ADF899
:100A780084102494ADF898102994ADF8AC102E94F5
:100A8800ADF8C0103394C0E90144CDE91344CDE971
:100A98001844CDE91D44CDE92244CDE92744CDE9E8
:100AA8002C44CDE93144ADF8D4103894ADF8E810B1
:100AB8003D94ADF8FC104294ADF810114794ADF890
:100AC80024114C94ADF838115194ADF84C1156944A
:100AD800ADF860115B94ADF87411CDE93644CDE9F9
:100AE8003B44CDE94044CDE94544CDE94A44CDE90C
:100AF8004F44CDE95444CDE95944CDE95E44CDE9AC
:100B0800A60B6094ADF888116594ADF89C116A94B1
:100B1800ADF8B0116F94ADF8C4117494ADF8D81154
:100B28007994ADF8EC117E94ADF8001240F60141CD
:100B38008394CDE96344CDE96844CDE96D44CDE9BA
:100B48007244CDE97744CDE97C44CDE98144CDE9CF
:100B5800A8A9CDE9AC373FAB099101210A94B0931C
:100B680044ABB19349ABB2934EABB39353ABB4938D
:100B780058ABB5935DABB69362ABB79367ABB8931D
:100B88006CABB99371ABBA9376ABBB937BABBC93AD
:100B980080ABBD930223CDE90B1309A9CDE9AA8245
:100BA800CDE9AE6501F084FB584640F6023B09A941
:100BB800ADF824B001F07CFB40F602215046ADF8B8
:100BC800241009A901F074FB40F602114846ADF85B
:100BD800241009A901F06CFB40F602014046ADF86B
:100BE800241009A901F064FB26AA09A9104640F2BD
:100BF8000322ADF8242001F05BFB2BAB09A91846B2
:100C080040F60243ADF8243001F052FB40F60623CB
:100C1800384609A9ADF8243001F04AFB40F60633FE
:100C2800304609A9BDAEADF8243001F041FB40F2D1
:100C38000143284609A90DF22725ADF8243001F013
:100C480037FB40F201533FA809A9ADF8243001F061
:100C58002FFB40F6010344A809A9ADF8243001F0A0
:100C680027FB40F6011349A809A9ADF8243001F083
:100C78001FFB40F201634EA809A9ADF8243001F02A
:100C880017FB40F2017353A809A9ADF8243001F00D
:100C98000FFB4FF0020358A809A9ADF8243001F062
:100CA80007FB4FF440735DA809A9ADF8243003E0B1
:100CB800EC0300242000010801F0FAFA40F20113C5
:100CC80062A809A9ADF8243001F0F2FA4FF4E06304
:100CD80067A809A9ADF8243001F0EAFA4FF4C06317
:100CE8006CA809A9ADF8243001F0E2FA71A809A9A5
:100CF800ADF824B001F0DCFA40F2024376A809A965
:100D0800ADF8243001F0D4FA40F603337BA809A9E2
:100D1800ADF8243001F0CCFA40F6061380A809A9F2
:100D2800ADF8243001F0C4FA4BF68033029402A8DF
:100D380085A98593CDE98644CDE98844A5AC01F021
:100D480039FA54F8040F01F0D1FC05F8010FA64256
:100D5800F7D100250DF22726A5AF02F07BFE06E0AD
:100D680073788BBB013506F8014F182D19D057F849
:100D7800040F01F0BBFC04460028F1D07378EAB2F6
:100D8800002BEFD18DF80720DDE9071399420B46B8
:100D980026D0013503F8012B06F8014F182D0793CB
:100DA800E5D103A990A800F083FB06A990A800F05C
:100DB800BBFCDDE90332934218BF0493DDE9063238
:100DC8009342C6D00793C4E70499EAB205980B4644
:100DD8008DF80720814209D003F8012B0493C1E75D
:100DE8000DF1070206A8FFF765FDBBE70DF1070245
:100DF80003A8FFF75FFDB5E704480023044A054947
:100E0800036043610362C3630EF0BCB8EC030024C3
:100E180000000024A1030008B7EE000B704700BFD4
:100E2800084A80ED000B80ED021B80ED042B80ED5D
:100E3800063B80ED084BC0E90A22C0E90C22826318
:100E4800704700BF210E0008042A05D8DFE802F029
:100E58000507090B03008163704781627047C1620F
:100E68007047016370474163704700BF2DE9F04F39
:100E780001230027ADB08846036200F11801C3635F
:100E88000546C760924601600391C0E901374FF0FB
:100E98007E530361C362836400F134030493C36126
:100EA80000F15003C0E90577C0E90977C0E90C777C
:100EB800C0E91077C0E91377836302F0CBFD83465E
:100EC8000AAE0AA80DF17009FCB298ED084B98ED2E
:100ED800063B98ED042B98ED021B98ED000BFFF7ED
:100EE8009FFF0FCEA9E80F000FCEA9E80F000FCE85
:100EF800A9E80F0096E80F0089E80F0050200EF0CF
:100F080048F800230DF1700E0472036000F1100C14
:100F18000646BEE80F00ACE80F00BEE80F00ACE8DC
:100F28000F00BEE80F00ACE80F0099E80F008CE84E
:100F38000F00EB68002B40F0BB80AA6822B9D4E10F
:100F48001268002A00F0D181117AA142F8D1304606
:100F580050210EF01CF8EB68002B40F0EC80A868DC
:100F680020B9A2E00068002800F09F80037AA3421D
:100F7800F8D110300022DAF80010FFF765FFEB68AF
:100F8800002B40F03D81A86820B98EE00068002859
:100F980000F08B80037AA342F8D110300122DAF8EE
:100FA8000410FFF751FFEB68002B5DD1A86818B952
:100FB8007BE00068002878D0037AA342F9D110308A
:100FC8000222DAF80810FFF73FFFEB68002B40F029
:100FD8006581A86818B968E00068002865D0037AB8
:100FE800A342F9D110300322DAF80C10FFF72CFFD6
:100FF800EB68002B40F02B81A86818B955E0006811
:10100800002852D0037AA342F9D110300422DAF82A
:101018001010FFF719FF0C200DF0BBFF0023064648
:1010280004710360AB6AC0F808B0002B40F0A780D9
:101038006A6A22B9CAE11268002A00F0C7811179E8
:10104800A142F8D130460C210DF0A1FF013708F17B
:1010580028080AF1140A172F7FF432AF0023284614
:101068006B652DB0BDE8F08FD5E90030B7FBF0F621
:1010780000FB167653F826C0BCF1000F15D0DCF83B
:101088000020137A9C420CD0116871B10B7A9446F7
:10109800B3FBF0F200FB1232964206D19C420A469C
:1010A800F2D1DCF80000002889D193480DF08BFFBD
:1010B800D5E90012B7FBF2F902FB197951F829C0FA
:1010C800BCF1000F18D0DCF80000017A8646A14276
:1010D8000DD0DEF8000078B1017AF446B1FBF2FEDB
:1010E80002FB1E1EF14507D1A1428646F1D1DCF86C
:1010F800001000297FF42BAF012106A8009105F10B
:1011080010010DF0AFFF9DF81830002B40F0F6806D
:101118002B6853F8292003EB8901002A00F0378156
:101128001268326053F829301E60EB680133EB60B7
:10113800002B3FF414AFD5E90030B7FBF0F600FB05
:10114800167653F826C0BCF1000FAED0DCF80020AC
:10115800137AA3420DD011680029A6D00B7A9446C1
:10116800B3FBF0F200FB123296429ED1A3420A462C
:10117800F1D1DCF8000000287FF4FBAE95E7D5E953
:101188000712B7FBF2F902FB197951F829C0BCF133
:10119800000F18D0DCF8000001798646A1420DD076
:1011A800DEF8000078B10179F446B1FBF2FE02FBEB
:1011B8001E1EF14507D1A1428646F1D1DCF8001088
:1011C80000297FF43FAF012108A8009105F12C0107
:1011D8000DF048FF9DF82030002B40F0FD80EC69B1
:1011E80054F8293004EB8902002B00F032811B6887
:1011F800336054F829301E60AB6A0133AB6225E7CF
:10120800D5E90030B7FBF0F600FB167653F826C098
:10121800BCF1000F3FF449AFDCF80020137AA34279
:101228000FD0116800293FF440AF0B7A9446B3FB06
:10123800F0F200FB123296427FF437AFA3420A461F
:10124800EFD1DCF8000000287FF4A7AE2DE7D5E940
:101258000030B7FBF0F600FB167653F826C0BCF159
:10126800000F3FF422AFDCF80020137AA3420FD01E
:10127800116800293FF419AF0B7A9446B3FBF0F2DA
:1012880000FB123296427FF410AFA3420A46EFD118
:10129800DCF8000000287FF4B8AE06E7D5E9003096
:1012A800B7FBF0F600FB167653F826C0BCF1000F2A
:1012B8003FF4FBAEDCF80020137AA3420FD011688C
:1012C80000293FF4F2AE0B7A9446B3FBF0F200FB30
:1012D800123296427FF4E9AEA3420A46EFD1DCF817
:1012E800000000287FF47EAEDFE66A68B7FBF2F9FB
:1012F80002FB197900E700BFF8000108DDF81C902F
:10130800B9F1010F00F0C980B9F1005F80F0C08029
:101318004FEA8902104605920DF03BFE059A00211E
:1013280005900EF01BFC059BD5F808C00022AA60AA
:10133800BCF1000F14D0964660460594014600683B
:101348000A7AB2FBF9FC09FB1C2253F8224074B359
:1013580024680C6053F8222011600028EED1059C07
:10136800039AD5E90001824204D0890005930DF063
:101378000EFE059BB7FBF9F2C5E9003909FB1279A6
:1013880053F8292003EB8901002A7FF4C9AEAA6823
:10139800AE6032603AB1127A6868B2FBF0FC00FBCA
:1013A8001C2243F8226005F108030B60BDE6AC6817
:1013B8000C602C4644F8081F43F822400C680CB116
:1013C80043F82E1096460028B8D1C8E72A6AB7FB1A
:1013D800F2F902FB1979F6E6DDF82490B9F1010F6C
:1013E8005FD0B9F1005F53D24FEA890420460DF06F
:1013F800D0FD2246002104460EF0B0FB686A0023A7
:101408006B6288B19C46024600681379B3FBF9F118
:1014180009FB113354F8231059B30968116054F8C3
:1014280023301A600028EED1049BD5E907018342D6
:1014380002D089000DF0ABFDB7FBF9F3C5E9074908
:1014480009FB137954F8293004EB8902002B7FF447
:10145800CEAE6B6A6E6233603BB11B79296AB3FB0F
:10146800F1F001FB103344F8236005F12403136005
:10147800C2E6696A1160294641F8242F44F823100E
:10148800116809B144F82C209C460028BBD1CBE751
:10149800B9F1804F09D30DF090FD0023AB61039B98
:1014A80042E70023049C6B63A8E70DF083FD00BFAF
:1014B8002DE9F04F0C4685B0054602F0CBFAD4E989
:1014C800003A9A4550D081469846EB6818F8014B87
:1014D800002B4FD1AF681FB969E03F68002F66D075
:1014E8003B7AA342F9D10C2010370DF052FD0022AF
:1014F8006B6C0646026004718760002B5AD0D5E9F0
:101508000E12B4FBF2FB02FB1B4B51F82BC0BCF1D3
:10151800000F5CD0DCF8000001798C420DD0076820
:10152800002F54D039798446B1FBF2F002FB101039
:1015380058454CD18C423846F1D1DCF800100029CE
:1015480045D00C2130460DF022FDAB6A002B5BD153
:101558006B6A13B92BE01B684BB31A79A242FAD114
:10156800C245C3F80890B0D16B6D01336B6505B007
:10157800BDE8F08FD5E90030B4FBF0F600FB164665
:1015880053F826709FB13A68137A9C420CD01168C0
:1015980069B10B7A1746B3FBF0F200FB12329642A0
:1015A80005D19C420A46F2D13F68002F9BD15D4885
:1015B8000DF009FD2A6C2AB11179A142C1D0126837
:1015C800002AF9D1EA6BB4FBF2FB02FB1B4B0120AA
:1015D80005F14801009002A80DF044FD9DF808307F
:1015E800002B36D1AF6B57F82B3007EB8B02002B53
:1015F8006CD01B68336057F82B301E606B6C01335E
:101608006B64AB6A002BA3D0D5E90730B4FBF0F6C6
:1016180000FB164653F82670002FC8D03A68137995
:101628009C420DD011680029C1D00B791746B3FB35
:10163800F0F200FB12329642B9D19C420A46F1D12F
:101648003B68002BB3D0C245C3F808907FF43DAF88
:101658008AE7DDF80CB0BBF1010F56D0BBF1005F93
:1016680059D24FEA8B0738460DF093FC3A460021D1
:1016780007460EF073FA05F1500E286C00232B6410
:1016880088B19C46024600681379B3FBFBF10BFB5B
:10169800113357F8231049B30968116057F82330FC
:1016A8001A600028EED1D5E90E01704502D08900F4
:1016B8000DF06DFCB4FBFBF3C5E90E7B0BFB134B84
:1016C80057F82B3007EB8B02002B92D12B6C2E6432
:1016D80033603BB11B79E96BB3FBF1F001FB1033CD
:1016E80047F8236005F14003136087E7296C116010
:1016F800294641F8402F47F82310116809B147F8E7
:101708002C209C460028BDD1CDE7AE4600234EF8DC
:10171800503F7746B1E7BBF1804F01D30DF04DFC48
:101728000DF048FCF80001082DE9F047D1E90076F2
:101738000546BE423AD0406C17F8011B00283AD142
:101748002B6C05F1400423B92EE01A681C46134699
:1017580052B31A798A42F8D12068EA6B0379B3FB4D
:10176800F2F102FB11334FEA8308A96BD0F800C0ED
:1017780051F808E08844744542D0BCF1000F0BD002
:101788009CF804E0BEFBF2F802FB18EE734503D0A8
:1017980041F82E40D0F800C00C21C4F800C00DF06C
:1017A800F6FB686C01386864BE42C5D16B6D013BBD
:1017B8006B65BDE8F087D5E90E42B1FBF2F302FB99
:1017C800131354F823404FEA8308002CECD0D4F8C4
:1017D80000E09EF804C0614510D0DEF80090744621
:1017E800B9F1000FE0D099F804C0CE46BCFBF2F97D
:1017F80002FB19C94B45D7D16145EED12068B4E742
:10180800BCF1000F09D09CF80490B9FBF2FA02FB76
:101818001A994B45C0D041F8294005F140039E452F
:101828004FF0000308BFC5F840C0C8F80030D0F832
:1018380000C0B1E7704700BF10B540F203318EB069
:1018480000244FF60B7340F20342ADF808100299DA
:1018580009A8ADF81030ADF824300123ADF80C20FC
:101868002246009407940C94CDE90544CDE90A4436
:1018780000F02EFE04A8012322460399009400F0EC
:1018880027FE09A800F032FF10B901200EB010BDE4
:1018980004A800F02BFF80F00100C0B240000EB099
:1018A80010BD00BF2DE9F04103239AB001270024A1
:1018B800149306463A4B1094119340F2045315972B
:1018C800ADF84830CDE91647FFF7B6FFB8420546F0
:1018D80043D0022832D1334B40F601320DF12C08A7
:1018E8000094CDF84A304FF60B73ADF818204046F7
:1018F80006993A46ADF82C3023460E94CDE91847A0
:10190800CDE90C4400F0E4FD2146404600F0FAFE23
:1019180010A906F13C0001F0D7FE302003224FF059
:101928007E5341460D930E93CDE90B02F26B06F1FF
:10193800140000F027FB1AB0BDE8F08140F6013230
:10194800184B0DF12C08ADF82C200B98CDF84A3027
:10195800CDE9184700F0A4F8DAE71023114A06A9E0
:1019680006908DF828300DF12C080F4BCDF84A2041
:1019780009940294CDE90730CDE9180402A801F0D2
:1019880023F90823029A03A94046ADF80C508DF8B4
:101998000E40049505930B9400F0C0F8B8E700BF1B
:1019A80004020404040604030704010B2DE9F041B2
:1019B800394B0446394D40F20112012704F104085D
:1019C8002DED028B82B04560A36003F58133ADF83D
:1019D800042040F2027203F580730020A4F8252049
:1019E800E36040F606632782A4F8293084F827705C
:1019F80084F82B7000918DF8060002F0C9F90546AD
:101A080002F030F86946064610BB0DB304F1300009
:101A18008DF8067002F042F9072D2ED104F1140555
:101A28002046FFF73FFF284600F0E8FA2846B0EEC8
:101A3800408A00F0DFFAD0ED007AF8EE677A88EE97
:101A4800277A84ED0E7A02B0BDEC028BBDE8F081F6
:101A580004F1300002F022F9072D13D1002EDDD059
:101A680004F1250000F058FE04F1290000F054FEAE
:101A780004F1120000F074F9D0E74146204601F065
:101A8800CFFACBE74146204601F0CAFA002EE7D14B
:101A9800002DE5D0C2E700BF0507050605080509C2
:101AA80010B584B00346012403A8ADF80C30ADF896
:101AB8000E4000F031FE214603A800F00BFF20463F
:101AC80001F0CEFF002103A800F004FF204601F03A
:101AD800C7FF214603A800F0FDFE04B010BD00BFFB
:101AE80010B5C2F3002384B00C46017C8DF80D209C
:101AF80043EA4402FA2402238DF80C2003AA009436
:101B080001F0F2F818B10124204604B010BD0446D3
:101B18000A2001F0A5FF204604B010BD034670B5A9
:101B2800044684B043F8042BFA2507C983E8070064
:101B3800A1791E23009503AA1A31ADF80C3020466E
:101B48000223C9B2217401F0CFF810B1012004B00A
:101B580070BD0A2001F084FF4FF4B85200950223AB
:101B6800ADF80C20204603AA217C01F0BDF800281E
:101B7800ECD10A2001F074FF41F2027200950223B1
:101B8800ADF80C20204603AA217C01F0ADF800280E
:101B9800DCD10A2001F064FF042200950223ADF88D
:101BA8000C20204603AA217C01F09EF80028CDD104
:101BB8000A2001F055FF062200950223ADF80C20FB
:101BC800204603AA217C01F08FF80028BED10A2004
:101BD80001F046FF41F2082200950223ADF80C20DF
:101BE800204603AA217C01F07FF80028AED10A2004
:101BF8000A2601F035FF0095022303AA217C20461E
:101C0800ADF80C6001F070F800289FD1304601F063
:101C180027FF23790C220095002B217C8DF80C20BE
:101C2800204614BF622342236A448DF80D300223F4
:101C380001F05AF8002889D1304601F011FFA36855
:101C480000952046E268217C13432279DBB282F0BA
:101C5800010243EA82136279524202F020021343DE
:101C68000E228DF80D3002238DF80C2003AA01F006
:101C78003BF800287FF46AAF304601F0F1FE1022ED
:101C880000950223ADF80C20204603AA217C01F020
:101C98002BF800287FF45AAF304601F0E1FE1221FC
:101CA80000950223ADF80C1003AA217C204601F010
:101CB8001BF800287FF44AAF304601F0D1FE01221C
:101CC80009212046FFF70CFF003818BF01203EE726
:101CD800F0B5214D87B000240126102702A94FF442
:101CE800805228460194CDE90267CDE9046408F0E2
:101CF80023F8642002F0E0FA022302A94FF480528C
:101D0800284602930594CDE9037608F015F80423D4
:101D180002A94FF4805228460397CDE904340323DF
:101D2800029308F009F840F23223042202A9284657
:101D3800019310230496CDE90223019B4FF48052AE
:101D4800059307F0F9FF40F60601284608F014F855
:101D5800204607B0F0BD00BF340400240000000096
:101D680070B51F4B88B008221E4E00214FF4006446
:101D78001A614FF0020C03920A225E602026069236
:101D88004022054699600320196210215C620124F3
:101D9800C3E905624FF4C072DC60DA6107229FED87
:101DA8000E7BCDE900C20422CDE904016946181D65
:101DB800029283ED0A7B07F095FF38B92846FFF7B2
:101DC80087FF003818BF012008B070BD204608B052
:101DD80070BD00BFAFF300800010000000000000DD
:101DE80030040024404100525E4A0023F0B51468D4
:101DF8008FB00A93002C40F0B2805B4B0121032680
:101E08000C2511600227D3F8D420584842F4805298
:101E1800C3F8D420D3F8D42002F480520092009A58
:101E2800D3F8E02042F01002C3F8E020D3F8E02015
:101E380002F010020192019AD3F8E02042F0400229
:101E4800C3F8E020D3F8E02002F040020292029AA0
:101E5800D3F8E02042F00802C3F8E020D3F8E020ED
:101E680002F008020392039AD3F8E02042F4807249
:101E7800C3F8E020D3F8E02002F480720492049AB8
:101E8800D3F8E02042F08002C3F8E020D3F8E02045
:101E980002F080020592059AD3F8E02042F0200271
:101EA800C3F8E020D3F8E02002F020020692069A58
:101EB800D3F8E02042F00402C3F8E0204FF6837222
:101EC800D3F8E0300B9603F004030C950793022334
:101ED800079908A9CDE9082303F052FA48F2371305
:101EE80008A9234808930C950997CDE90A4603F0F9
:101EF80047FA4CF2037308A91E480893CDE9097400
:101F0800CDE90B6503F03CFA40F2FF6308A91A48D3
:101F18000893CDE90974CDE90B6503F031FA4FF662
:101F28000C7308A915480893CDE90974CDE90B6528
:101F380003F026FA4FF63F0308A911480893CDE9A4
:101F48000974CDE90B6503F01BFA202308A90B4897
:101F580009970C950893CDE90A4603F011FA0FB0DA
:101F6800F0BD00BF2C0400240044025800100258A1
:101F780000180258000C025800200258001C025891
:101F88000014025830B5184C85B01546046004F1A9
:101F9800080EEC460FC98EE80F00D4ED047AF5EE72
:101FA800C07A8CE80F00F1EE10FA1ADDB7EE006A7D
:101FB80094ED057A27EE277AC6EE276A84ED0D7A26
:101FC800C4ED0C6A6DB1204640F8185F01F07EFC44
:101FD800064903690020064A2162A262E36005B04F
:101FE80030BD012005B030BD680400240020003059
:101FF8000000003000680830704700BF00681830E3
:1020080001F066BC064B302003214FF07E52C3E935
:102018000201002000211A615A61C3E906017047D4
:10202800680400244F4B02689A4200D070474E4B18
:10203800D3F8E81030B541F000514C4C85B0D4F8D5
:102048004821C3F8E810D3F8E81001F000510191D5
:102058000199D3F8E01041F00101C3F8E010D3F87A
:10206800E03003F001030293029B32F002033ED0FA
:10207800013A012A6BD9D4F84C31012B0AD000223D
:102088003620114602F042F9362005B0BDE830404E
:1020980002F078B9D4F8483133F0020235D0013B68
:1020A800012BECD8002344223149C4F89830C4F8F5
:1020B800B0304FF480632F4DC4F89C304FF4005378
:1020C8002846C4E923124022C4F894204FF4006241
:1020D800C4E928234FF480724FF48033C4E92A23DB
:1020E80002F0A8FB80B9E560C4F8C440C7E74FF424
:1020F8008062032303A8ADF80C208DF80E3000F0A1
:102108000BFBD4F84821B3E7FEE743232262A2631E
:102118004022A3614FF48063E2614FF4006263627E
:102128004FF40053144D154928466161C4E90A2348
:102138004FF480724FF48033C4E90C2302F07AFB29
:1021480020B9D4F84831A560E464A8E7FEE74FF465
:10215800A062032303A8ADF80C208DF80E3000F020
:10216800DBFA88E70074004000440258A004002409
:10217800280402402C050024B40400241004024062
:10218800014802F0E9BE00BFB4040024014802F08F
:10219800E3BE00BF2C05002410B5054C204602F014
:1021A80095F904F58270BDE8104007F07DBF00BFC7
:1021B800A004002430B58C463A4C8DB03A4D0460EA
:1021C80004F5A27EBCE80F00AEE80F00DCF8003092
:1021D80020462560CEF8003002F060F90023D4F8DC
:1021E8004C510393B5B9022304930022D4F8543117
:1021F800D4F848119B1A18BF0123CDE906225B00C9
:1022080031F0020205932DD00139012935D900207A
:102218000DB030BD1622012D0492E6D1234A009359
:10222800C4F80C31C4F80421C4F81431C4F81C31C2
:10223800CDE9013301F0AAFDD4F844314BF68031E1
:10224800024604F58270C4F80851002B08BF0B46FB
:10225800B2FBF3F3C4F8103107F0A6FD0346B0B1A2
:102268000120D5E703A90F4802F064F90028F7D147
:10227800D4F8481101390129C9D8102203A90948FD
:1022880002F058F9003818BF01200DB030BD2022E7
:10229800694604F582700293009207F0BDFF00289A
:1022A800A3D0DDE7A0040024007400400010004023
:1022B80084460FC98CE80F009CF800300B2B37D0F0
:1022C80000B59CF801E091B0BEF10F0F2DD802299E
:1022D8003FD0032904D0A1F10101B1FA81F14909E4
:1022E800DCF808200C91012A05D0A2F10202B2FA0A
:1022F80082F252095200DCF80C100D92022906D025
:10230800032904D0A1F10101B1FA81F149090A2B8D
:102318000E910ED900231846CCF8103001230BA9D2
:1023280003FA0EF30B9303F02BF811B05DF804FBDE
:1023380070475B4A591E02EB8323CCF810300929F9
:1023480000F29F80DFE801F08E7F706152433425F0
:1023580016071121C4E7534B5348D3F8E02042F441
:102368008062C3F8E020D3F8E03003F480630A9376
:102378000A9BD3E74B4B4D48D3F8E02042F4007258
:10238800C3F8E020D3F8E03003F400730993099B05
:10239800C4E7444B4648D3F8E02042F48072C3F8BF
:1023A800E020D3F8E03003F480730893089BB5E786
:1023B8003C4B4048D3F8E02042F08002C3F8E020CC
:1023C800D3F8E03003F080030793079BA6E7354B6B
:1023D8003948D3F8E02042F04002C3F8E020D3F8AF
:1023E800E03003F040030693069B97E72D4B3348F4
:1023F800D3F8E02042F02002C3F8E020D3F8E03020
:1024080003F020030593059B88E7264B2C48D3F857
:10241800E02042F01002C3F8E020D3F8E03003F0E7
:1024280010030493049B79E71E4B2648D3F8E02059
:1024380042F00802C3F8E020D3F8E03003F00803C4
:102448000393039B6AE7174B1F48D3F8E02042F039
:102458000402C3F8E020D3F8E03003F00403029349
:10246800029B5BE70F4B1948D3F8E02042F00202C9
:10247800C3F8E020D3F8E03003F002030193019B96
:102488004CE7084B0648D3F8E02042F00102C3F8B5
:10249800E020D3F8E03003F001030093009B3DE710
:1024A800000002580044025800280258002402582C
:1024B80000200258001C0258001802580014025844
:1024C80000100258000C0258000802580004025874
:1024D80010B592B00180ADF80410C9B2149C0B2954
:1024E800C460C0E901232FD090F801E08446BEF112
:1024F8000F0F29D8022A39D0032A04D0A2F10102E9
:10250800B2FA82F25209012B0E9205D0A3F102030E
:10251800B3FA83F35B095B00022C0F9306D0032CFC
:1025280004D0A4F10104B4FA84F464090A291094CB
:102538000CD900231846CCF8103001230DA903FA52
:102548000EF30D9302F01CFF12B010BD5B4B4A1E38
:1025580003EB8123CCF81030092A00F29F80DFE8D2
:1025680002F08E7F70615243342516071122CAE7A4
:10257800534B5448D3F8E02042F48062C3F8E0207B
:10258800D3F8E03003F480630C930C9BD5E74C4BF5
:102598004D48D3F8E02042F40072C3F8E020D3F8A5
:1025A800E03003F400730B930B9BC6E7444B47489A
:1025B800D3F8E02042F48072C3F8E020D3F8E0308A
:1025C80003F480730A930A9BB7E73D4B4048D3F85E
:1025D800E02042F08002C3F8E020D3F8E03003F0B6
:1025E80080030993099BA8E7354B3A48D3F8E020C4
:1025F80042F04002C3F8E020D3F8E03003F0400393
:102608000893089B99E72E4B3348D3F8E02042F013
:102618002002C3F8E020D3F8E03003F0200307934A
:10262800079B8AE7264B2D48D3F8E02042F010029A
:10263800C3F8E020D3F8E03003F010030693069BBC
:102648007BE71F4B2648D3F8E02042F00802C3F886
:10265800E020D3F8E03003F008030593059B6CE70E
:10266800174B2048D3F8E02042F00402C3F8E020DA
:10267800D3F8E03003F004030493049B5DE7104BA8
:102688001948D3F8E02042F00202C3F8E020D3F85A
:10269800E03003F002030393039B4EE7084B07481F
:1026A800D3F8E02042F00102C3F8E020D3F8E0308C
:1026B80003F001030293029B3FE700BF00000258AA
:1026C80000440258002802580024025800200258EA
:1026D800001C025800180258001402580010025832
:1026E800000C0258000802580004025808B50121DD
:1026F80043780069994089B203F07CF9003818BF23
:10270800012008BD01230A464178006903FA01F156
:1027180089B203F075B900BF8378022B30B504463F
:102728008FB039D0032B00F0D180A3F10102B2FAA7
:1027380082F25209E3780A92012B05D0A3F1020331
:10274800B3FA83F35B095B0000222046CDE90B3224
:1027580001F090FC0546204601F094FC237809908E
:10276800082B13D8DFE803F02D405366798C9F05BA
:102778001A00574BD3F8E02042F08002C3F8E0205B
:10278800D3F8E03003F080030793079B09A9284694
:1027980002F0F6FD0FB030BD1122CBE74C4B09A972
:1027A8002846D3F8E02042F48072C3F8E020D3F83A
:1027B800E03003F480730893089B02F0E1FD0FB04A
:1027C80030BD434B09A92846D3F8E02042F0010266
:1027D800C3F8E020D3F8E03003F001030093009B36
:1027E80002F0CEFD0FB030BD394B09A92846D3F809
:1027F800E02042F00202C3F8E020D3F8E03003F012
:1028080002030193019B02F0BBFD0FB030BD304BBA
:1028180009A92846D3F8E02042F00402C3F8E020D2
:10282800D3F8E03003F004030293029B02F0A8FD02
:102838000FB030BD264B09A92846D3F8E02042F056
:102848000802C3F8E020D3F8E03003F0080303934C
:10285800039B02F095FD0FB030BD1D4B09A928461A
:10286800D3F8E02042F01002C3F8E020D3F8E030BB
:1028780003F010030493049B02F082FD0FB030BDF7
:10288800134B09A92846D3F8E02042F02002C3F8E8
:10289800E020D3F8E03003F020030593059B02F015
:1028A8006FFD0FB030BD0A4B09A92846D3F8E020C8
:1028B80042F04002C3F8E020D3F8E03003F04003D0
:1028C8000693069B02F05CFD0FB030BD1A4631E757
:1028D8000044025870B506460D4601F0CBFB04468D
:1028E800304601F0CFFB2A1E0146204618BF0122C0
:1028F800BDE8704003F084B870B5002386B012229A
:1029080004460393CDE901230368032B01D804236C
:102918000493261D0634304601F0ACFB05463046CC
:1029280001F0B0FB034669462846009302F028FDF3
:10293800204601F09FFB034620461C4601F0A2FBFF
:10294800694603462046009302F01AFD06B070BDA2
:10295800634A0368934210B58CB028D0614A934209
:1029680058D0614A934200F09480604A934201D063
:102978000CB010BD5E4C5F48D4F8E03043F0020361
:10298800C4F8E030D4F8E03003F002030A930A9B5D
:10299800FFF7B2FFD4F8F43043F08003C4F8F43002
:1029A800D4F8F43003F080030B930B9BE0E7504C12
:1029B8005148D4F8E03043F00203C4F8E030D4F8CA
:1029C800E03003F002030193019BFFF795FFD4F871
:1029D800E83000221F2043F400131146C4F8E83001
:1029E800D4F8E83003F400130293029BD4F8D830EB
:1029F80043F00103C4F8D830D4F8D83003F0010309
:102A08000393039B01F082FC1F200CB0BDE810402B
:102A180001F0B8BC364C3948D4F8E03043F08003B4
:102A2800C4F8E030D4F8E03003F080030493049B4A
:102A3800D4F8E03043F00203C4F8E030D4F8E030D2
:102A480003F002030593059BFFF756FFD4F8E8301F
:102A58000022212043F480031146C4F8E830D4F85A
:102A6800E83003F480030693069BD4F8D83043F08B
:102A78000103C4F8D830D4F8D83003F00103079321
:102A8800079B01F043FC21200CB0BDE8104001F089
:102A980079BC1B48FFF730FF154B00224820D3F8BC
:102AA800E840114644F40004C3F8E840D3F8E8408D
:102AB80004F400040894089CD3F8D84044F00104B6
:102AC800C3F8D840D3F8D83003F001030993099B21
:102AD80001F01CFC48200CB0BDE8104001F052BCCD
:102AE8000054004000580040005C0040001C0058A2
:102AF80000440258940800240C060024E40600242C
:102B0800BC070024F0B5002287B0184B1021CDF87F
:102B180002206F46CDF806209C46CDF80A206E4666
:102B2800CDF80E200CF11805CDF812200CF1300E5E
:102B3800ADF81620FF220E4B6C46ADF800101A7047
:102B48000FCFACE80F0097E803008CE803000FCE26
:102B58000FC596E8030085E803000FCCAEE80F0028
:102B680094E803008EE8030007B0F0BD04000024D9
:102B78000806002410B5EFF3108472B6074B1A78D4
:102B8800120602D504B962B610BD1B78D820044AD3
:102B98005BB200FB032002F0DFF9F3E7080600242C
:102BA80020060024014803F0AFBD00BF98060024AA
:102BB800014803F0A9BD00BF70070024014803F0D5
:102BC800A3BD00BF480800242DE9F0410F68D825AF
:102BD8003C4E84B007FB05F5032F06EB05030360A5
:102BE80058DCCA680C46012A54D84FD020689C4645
:102BF80061684FF0D808A2680DF1100EE36808FB71
:102C08000768ACE80F00304B227C8CF80020D8F81D
:102C180008C00FCB0EE90F000EEB8703BCF1010FC4
:102C280053F8103CC8F88C3042D0BCF1020F35D0B4
:102C3800BCF1000F08D101F0A7F8244B98420CBF53
:102C4800234B244BC8F890308C35D823217C0022A4
:102C580003FB0763012035444900C3E926022846DF
:102C6800C3F89410C3E92822C3E92A2203F044FBDD
:102C780080B90146284603F053FD58B90146284655
:102C880003F078FD003818BF012004E00A7C103AF0
:102C9800672AABD9012004B0BDE8F08101F074F8CF
:102CA8000A4B98420CBF0C4B0C4BC8F89030CBE742
:102CB80001F06AF8054B98420CBF094B094BC8F85C
:102CC8009030C1E70C06002498000108000E270781
:102CD8005F4390608A62E030200BA0101A098010D0
:102CE8002D0FB0303211D0202DE9F041D0F80080FE
:102CF80082B00D4617461E4608F18C04204603F0A4
:102D08000BFD2028FAD1D8F80C3073B96D00204695
:102D1800089C33463A46A9B2009403F043FB0038B6
:102D280018BF012002B0BDE8F081089B3246394641
:102D3800204603F003FCF2E7044B10221A7483F8D0
:102D4800E82083F8C02183F8982270470C060024F5
:102D580030B5002395B04FF48071062204460B93DA
:102D680006921393CDE90C13CDE90E33CDE9113357
:102D780001F00EF807282AD004F1100541F2883234
:102D880006A9284604F028FB28B1012384F85C3002
:102D9800012015B030BD0223102206A92846029250
:102DA8000022CDE90033012303934FF48003CDE9DA
:102DB800042305224FF0807306926A460F9341F26E
:102DC800883304F099FC0028DFD115B030BD032307
:102DD80084F85C30DCE700BF70B50023A4B04FF086
:102DE80080724FF480750446ADF806301B93CDE928
:102DF8001E320122CDE91C53CDE92023CDE922332F
:102E0800002942D0F02300F1100516AEADF80630C7
:102E1800C02341F2883231462846169304F0DCFA82
:102E280028B1012384F85C30012024B070BD41F240
:102E380088320DF10601284604F03CFB03460028C1
:102E4800EFD14FF4807105222846012508921022FF
:102E580010930D93159302930595CDE90E139FEDED
:102E68001E7B4FF08071CDE91333119141F2883305
:102E780008A9CDE9035202AA8DED067B04F03CFCBB
:102E88000028D2D084F85C50CEE700F1100516AEC9
:102E9800612341F2883231462846169304F09CFAA1
:102EA8000028BED141F288320DF10601284604F00F
:102EB8008FFB0028B5D1BDF80630204623F07803F3
:102EC80043F04003ADF80630FFF742FF00289FD0DB
:102ED800A7E700BFAFF3008000000000000040003B
:102EE8002DE9F04F00234FF4807601254FF08078CC
:102EF80004462DED028BABB08DF807302193139368
:102F08001B9322961C95CDF89480CDE92333CDE907
:102F18002653CDE92833CDE91463CDE91633CDE93D
:102F2800193306230E9300F033FF072808D004F165
:102F3800100741F288320EA9384604F04DFA40B124
:102F4800012384F85C3001202BB0BDEC028BBDE876
:102F5800F08F02234FF010094FF0050A08AA0EA9B6
:102F680038460B95CDF85C80CDF82890CDF838A080
:102F78009FED298BCDE9083341F288338DED0C8B19
:102F880004F0BAFB0028DBD141F2883238461CA98C
:102F980004F022FA0028D3D14FF0400B41F28832D6
:102FA8000DF1070138468DF807B004F083FA0028C0
:102FB800C6D141F288331CA902AA3846CDF870A0C0
:102FC800CDF89480CDE902BBCDE904958DED068B53
:102FD80004F092FB03460028B2D1139308AA1B936E
:102FE8000EA938461496CDF838A0CDF85C80CDF8F7
:102FF80028900B95CDE91533CDE91933CDE908357E
:1030080041F288338DED0C8B04F076FB00289BD0C1
:1030180084F85C5097E700BF000000000000400003
:103028002DE9F0435C4CA3B00E46046000F0B0FEFE
:10303800072800F0A480306825467168B26807C583
:10304800B389284620F8043B267B677B04F0A6F961
:10305800E0B9524B012E4FF00108E06123610CBF2B
:103068004FF400034FF48013C4E9058893FAA3F3DF
:10307800B3FA83F34FF48079013BC4F82490C4E990
:103088000B00281D236204F01BF938B1012384F8D2
:103098005C300126304623B0BDE8F08366230B90F0
:1030A800139041F2883206A90693CDE90C90CDE938
:1030B8000E00CDE91100281D04F08EF90028E5D195
:1030C800992341F2883206A9281D069304F084F951
:1030D8000028DBD105231C9019906A4614934FF001
:1030E8008073219014A91D931023CDF80C800293AE
:1030F80041F288339FED247BCDE91A90CDE91F007A
:10310800CDE90008281D8DED047B04F0F5FA0028B0
:10311800BCD131462046FFF75FFE0028B6D12046D5
:10312800FFF7DEFE06460028B0D1002FB2D1EB2310
:1031380006AA14A9281D14934FF44063CDF868908B
:103148001B934FF40053189617934FF440431C9366
:10315800A0231693062319934FF080539FED0C7B01
:1031680021934FF04073CDE91F661D938DED067BCB
:1031780004F050FB00288DD084F85C8089E7032395
:1031880084F85C3085E700BF0000000000004000C4
:1031980000000000000000007009002400500052E8
:1031A8002DE9F04F8FB0414B0024026800AF9A42DE
:1031B8007C63C7E90944C7E90B4403D03C37BD46E3
:1031C800BDE8F08F3A4B40F609213A48EA46D3F871
:1031D800D42007F11C0607F1220B4FF0020942F434
:1031E80080424FF00308C3F8D420D3F8D42002F467
:1031F8008042BA60BA68D3F8E02042F04002C3F8CF
:10320800E020D3F8E02002F04002FA60FA68D3F830
:10321800E02042F02002C3F8E020D3F8E02002F0DA
:1032280020023A613A69D3F8E02042F01002C3F86C
:10323800E020D3F8E02002F010027A617A69D3F82E
:10324800E02042F00202C3F8E020D3F8E030F86151
:1032580003F002033984BB61174B7B60BB697B6851
:1032680053F8040F7B6000F005FF7B68054618687B
:1032780000F008FF16F8013B786207F124012846A0
:10328800C7F830807B63C7E90A9402F079F85E4595
:10329800E5D100225C20114601F038F85C2001F0ED
:1032A80071F83C37D546BD46BDE8F08F0050005256
:1032B800004402580A0A0909CC090024114B026883
:1032C8009A4200D07047104A70B5D2F8D4300F4CEB
:1032D80023F4804304F11806C2F8D43054F8040FDC
:1032E80000F0C8FE0546206800F0CCFE01462846DE
:1032F80002F054FAB442F1D15C20BDE8704001F00C
:103308004FB800BF0050005200440258CC090024B6
:10331800014804F00DBB00BF80090024084B1A1DAA
:10332800981D03F1080110B49C1C9A6603F10A0267
:10333800C3E91834C3E91B015DF8044B5A677047A9
:10334800700900242DE9F043821D05468BB0031D4A
:1033580005F10A010830CDE9052305F10C02AB6936
:10336800CDE907010992002B3ED0EB69B3FA83F847
:103378004FEA58180123022205AE0AAF4FF006099A
:103388000393CDE9012313E02B680BB3012B02D182
:1033980022B30A230493204600F074FE0346204615
:1033A800009300F067FE694601F0EAFFBE4212D0C2
:1033B80056F8044B2B7922789342E5D169796378E2
:1033C8009942E1D1B8F1000FF0D02B68002BDDD184
:1033D800CDF81090DFE70BB0BDE8F0836378022BDF
:1033E8000CBF08230A23D5E74FF00108C2E700BF46
:1033F800A04A0368934270B505468AB07FD0203250
:1034080093427CD09C4A934204D02032934201D00C
:103418000AB070BD994C9A48D4F8E03043F00103E3
:10342800C4F8E030D4F8E03003F001030593059BBD
:10343800D4F8E03043F00803C4F8E030D4F8E030C2
:1034480003F008030693069BD4F8E03043F04003EA
:10345800C4F8E030D4F8E03003F040030793079B4A
:10346800D4F8F03043F40003C4F8F030D4F8F03066
:1034780003F400030893089BFFF764FFD4F8D820EF
:10348800804B42F001022968D3F85C02C4F8D820C6
:10349800D4F8D82002F001020992774A099C914297
:1034A80000F0AB80D3F88022013A18BF01229201C4
:1034B800002840F0CC807448582103F22C4403F5CE
:1034C8004775C3F82C0400232046C4E901124FF4C1
:1034D80080524FF48061636262614FF48042C4E9B4
:1034E80003314FF48073C4E906234FF40033236299
:1034F80001F0A0F9002800F09580FFBEFEE75F4CC0
:10350800604ED4F8E030304643F00103C4F8E030B0
:10351800D4F8E03003F001030093009BD4F8E030C6
:1035280043F01003C4F8E030D4F8E03003F010039F
:103538000193019BD4F8E03043F04003C4F8E03035
:10354800D4F8E03003F040030293029BD4F8F03043
:1035580043F48003C4F8F030D4F8F03003F4800367
:103568000393039BFFF7EEFED4F8D830296843F0A5
:103578000103404A3068C4F8D8309142D4F8D830B2
:1035880003F001030493049B27D0736A013B18BF1F
:1035980001239B01002852D13B4A06F5E8745821C3
:1035A800C036C6F8102100222046C4E901134FF4A2
:1035B80080534FF48061626263614FF48073C4E9A1
:1035C80003214FF48042C4E906234FF400332362F9
:1035D80001F030F908B3FFBEFEE7336A013B18BFBC
:1035E80001239B0118BB02F5284206F5AC7457214C
:1035F80028360C32C6F83021D5E7D3F87C22013AB8
:1036080018BF0122920158BB2048572103F56D7459
:1036180003F52175C3F8B40355E7C6E92044A6634A
:103628000AB070BDC5E92044A5630AB070BD184A48
:1036380006F5AC7459212836C6F83021B3E7154A87
:1036480006F5E8745A21C036C6F81021ABE71148D0
:103658005A2103F22C4403F54775C3F82C0432E7CA
:103668000B48592103F56D7403F52175C3F8B403AC
:1036780029E700BF04580140045C01400044025897
:10368800440C0024E80900242800024010000240ED
:103698005800024070000240014801F05DBC00BFC4
:1036A800400B0024014801F057BC00BFB80B0024B0
:1036B800014801F051BC00BF9C0D0024014801F0F5
:1036C8004BBC00BF140E00242DE9F04F0C684FF4DA
:1036D8001777794E87B004FB07F7012C06EB07082C
:1036E800C0F8008000F39F804FF0000907F51273BF
:1036F8000D468E4646F803903344C446C3F80490FA
:10370800C8F8509268A3D3E9002369A1D1E9000160
:10371800CDE9022306AB03EB8403CDE9040153F89A
:1037280010BC53F808ACBEE80F00ACE80F00BEE8C8
:103738000F00ACE80F009EE80300C8F828B0C8F8EE
:10374800C0A08CE803002B69042B0DD8DFE803F038
:103758007F89930376004FF417734BF6803203FB8F
:1037680004639A64C3F8E020AA69296A002A56D03B
:1037780000294FF0010214BF032102214FF41773EF
:1037880003FB0463C3E90B12EA69696A002A4ED194
:10379800003918BF01214FF4177303FB0463C3E911
:1037A80031126B69022B06D8444A12F80390444A36
:1037B80052F8233001934FF417730022414907F15F
:1037C800280004FB03F3304403F1380E03F1500CD6
:1037D80003F1D00503F1E80441F80E2033448E4488
:1037E800CEF804205A645A6341F80C208C44CCF873
:1037F8000420DA654A510D446A60C3F8DC20C3F836
:10380800CC200A510C4401996260C3F8F4200223C9
:103818004A4606F0B9F9002837D0FFBEFEE700395E
:1038280018BF0121AAE7012007B0BDE8F08F0029E1
:103838004FF0010214BF03210221ACE74FF41773C4
:10384800214A03FB04639A64C3F8E0208CE74FF431
:1038580017734FF4FA5203FB04639A64C3F8E02029
:1038680082E74FF417734FF47A5203FB04639A64A8
:10387800C3F8E02078E74FF417734FF4FA4203FBDC
:1038880004639A64C3F8E0206EE707F1C0000223DE
:103898004A460199304406F077F90028C4D0FFBEA3
:1038A800FEE700BFAFF3008004580140045C01400C
:1038B80024580140245C0140E80900242C01010837
:1038C80020010108EC090024007701000068704716
:1038D80003681B69042B05D8044A02EB830393EDA4
:1038E800000A70479FED020A704700BF0C010108EB
:1038F80000803B47704700BF08B500F0CBFCBDE82F
:10390800084000F0C7BD00BF064808B503680BB102
:1039180002F07AF8044803681BB1BDE8084002F0D9
:1039280055BF08BDB0120024A80E0024064808B5EB
:1039380003680BB102F068F8044803681BB1BDE8DE
:10394800084002F043BF08BDB0120024A80E0024AE
:10395800064808B503680BB102F056F80448036836
:103968001BB1BDE8084002F031BF08BDB012002409
:10397800A80E0024364BDA6A520062D59A6A9A6A0F
:103988009A6A9B6A180600D500BE314B9B6A990655
:1039980000D500BE2E4B9B6ADA0600D500BE2C4B24
:1039A8009B6A1B0700D500BE294B9B6A980700D568
:1039B80000BE274B9B6AD90700D500BE244B9B6AE3
:1039C8001A0400D500BE224B9B6A9B0400D500BE9A
:1039D8001F4B9B6AD80400D500BE1D4B9B6A190576
:1039E80000D500BE1A4B9B6A5A0500D500BE184B7D
:1039F8009B6A9B0500D500BE154B9B6AD80500D570
:103A080000BE134B9B6A990100D500BE104B9B6A00
:103A1800DA0100D500BE0E4B9B6A1B0300D500BE21
:103A28000B4B9B6A580300D500BE094B9B6A990350
:103A380000D500BE064B9B6ADA0306D400BE00BE62
:103A4800FEE7DB6A9B07FAD5F8E700BEF6E700BF9A
:103A580000ED00E0014808F06BBE00BFA00E002496
:103A680000F02ABC0A4B9B6803F17843B3F5003F8A
:103A78000BD3084B986848B19868012806D0986815
:103A8800022803D09868032070470120704700BFC0
:103A980000ED00E0000080382DE9F041CEB004468A
:103AA8004C2200210AA80CF059F82022002102A873
:103AB8000CF054F8BC2200211EA80CF04FF802208C
:103AC80003F00CFB2368012B4FF0000350D0504A41
:103AD80002250193C820D16A4E4B21F00101D16221
:103AE800D26A02F0010201929A6942F440429A6154
:103AF8009B6903F440430193019B464A93699904E7
:103B0800FCD545490224002201268B6A4FF004089F
:103B1800082723F0030323438B62052316900AA882
:103B280018934FF48033109617941994CDF8548055
:103B38001A97CDE91B222122CDE91344CDE90A23A6
:103B480003F0FEFF00B1FEE7402329463F224FF471
:103B580080650993049002A805970895CDE9063376
:103B68000323CDE9022304F005FB0346B8B1FEE7C1
:103B7800284A04250093F0209169254B41F44041DF
:103B88009161926902F440420092DA6A42F00102BD
:103B9800DA62DB6A03F001030093009BADE74FF4A0
:103BA80080324FF4805122941EA846922F94339469
:103BB800062435912197CDF8A8802C951F96239639
:103BC800CDE92531CDE93032CDE92D3300224FF44E
:103BD8008071CDE93B334FF4401343911021CDE977
:103BE8003E2340F2271280232991249334930C23F7
:103BF800CDE92742202220932B92084A1E9204F0F6
:103C080003FD00B1FEE703F08FFA4EB0BDE8F08186
:103C18000004005800480258004402580F130F03CC
:103C280070B584B0012400F0E3FB4FF480764FF0C8
:103C38004052194B6846ADF80040019200250293A6
:103C4800039600F0F3FB192368468DF80F408DF8B2
:103C580008304FF04043ADF80D6001938DF80140F6
:103C68008DF80A5000F0E2FB02230B2268468DF81B
:103C78000F508DF801304FF062538DF808200193F2
:103C8800ADF80D408DF80A4000F0D0FB042000F09C
:103C9800BDFB04B070BD00BF0E00010330B50C467B
:103CA800054685B0D1E9000185E8030000F0C2FAB5
:103CB800A379A3B309F052FCFEF724FF08F0C2F879
:103CC80009F038F923798BBB63799BB1BFF34F8F28
:103CD800BFF36F8F2A4B0022C3F85022BFF34F8FD8
:103CE800BFF36F8F5A6942F400325A61BFF34F8FA6
:103CF800BFF36F8F4FF0FF32002300240025694681
:103D0800204802928DF80C30CDE9004508F096FC69
:103D18001C4808F0FBFC07F009FD05B030BD28463B
:103D2800FFF7BAFE2846FFF77BFFC3E714490023D5
:103D3800C1F88430BFF34F8FD1F8805043F6E07E4E
:103D4800C5F34E3CC5F3C9054FEA4C1C0CEA0E00FE
:103D58002B4640EA8372013BC1F860225A1CF8D115
:103D6800ACF1200C1CF1200FF0D1BFF34F8F4B6941
:103D780043F480334B61BFF34F8FBFF36F8FA3E7DB
:103D880000ED00E0A00E002404F026BB04F040BBC8
:103D98001C4B9B6803F17842B2F5003F25D3B3F57D
:103DA800803F20D303F16042B2F5003F1FD303F1F7
:103DB8005C42B2F5002F1CD303F17042B2F5902F8C
:103DC80019D303F14842B2F5803F16D303F180427C
:103DD800B2F1806F13D303F1E043B3F5000F34BFA2
:103DE80007200820704701207047002070470220F4
:103DF800704703207047042070470520704706204D
:103E0800704700BF00ED00E003480023034A04495F
:103E180003600BF0B7B800BFA00E00240000002418
:103E2800FD38000810B4204C83B0204B0022D4F891
:103E380088001F4940F47000C4F8880018681D4CB9
:103E480040F0010018601A611868014019609A6111
:103E5800DA611A629A62DA621A635A639A63DA63F7
:103E68001A645A64196821F4802119601A66D3F813
:103E7800DC2042F06042C3F8DC20D3F8DC30019348
:103E8800019B23686FF30F03B3F1005F03D20A4B62
:103E98000122C3F80821044B4FF000629A6003B076
:103EA8005DF8044B704700BF00ED00E00044025885
:103EB8007FEDF6EA0010005C0080005100F571719A
:103EC800D0F8040407F030B8C1EBC10300EB83035A
:103ED800D0F80404D3F8082207F054B8C1EBC103A2
:103EE80000EB8303D0F804049A6C07F085B800BF90
:103EF800D0F8040407F020B9C16810B5044619B118
:103F0800022900D0FEE70121D4F8040407F0FEF8E6
:103F1800D4F80404BDE8104007F0D0B810B5044642
:103F2800D0F8040407F0F6F82268D2F8003E43F00F
:103F38000103C2F8003E236A23B1034A136943F020
:103F48000603136110BD00BF00ED00E0D0F80404C3
:103F580007F0EAB8D0F8040407F0FEB8D0F8040473
:103F680007F0F8B8D0F8040407F0F8B8D0F804045B
:103F780007F0F6B89446D0F898021A4608B5634692
:103F880002F09CFF18B102280CBF0120022008BDD6
:103F980008B5D0F8980203F01FF818B102280CBF32
:103FA8000120022008BD00BF08B5D0F8980203F030
:103FB80057F818B102280CBF0120022008BD00BF25
:103FC8000A06D0F8983206D4C1EBC10103EB81038D
:103FD80093F8FE01704701F07F01C1EBC10103EBCB
:103FE800810393F83E00704708B5D0F8980202F0B4
:103FF8004FFF18B102280CBF0120022008BD00BFE6
:1040080008B5D0F8980202F0BFFF18B102280CBF1B
:104018000120022008BD00BF08B5D0F8980202F0C0
:104028008BFF18B102280CBF0120022008BD00BF79
:10403800D0F8C00207F034BBD0F8C00207F048BB84
:10404800D0F8C00207F050BB704700BFD0F8C002DC
:1040580007F036BBD0F8C00207F036BB08B5D0F879
:10406800D00302F083F818B102280CBF0120022007
:1040780008BD00BF024B027853F82200704700BF0A
:1040880060010108024B427833F81200704700BF04
:10409800400101088CB00A2814D8DFE800F0233169
:1040A8003F4D5B697785930615004D4BD3F8E020AB
:1040B80042F40072C3F8E020D3F8E03003F4007350
:1040C8000A930A9B0CB07047454BD3F8E02042F4A2
:1040D8008062C3F8E020D3F8E03003F480630B93E8
:1040E8000B9BEFE73E4BD3F8E02042F00102C3F808
:1040F800E020D3F8E03003F001030193019BE1E7EE
:10410800374BD3F8E02042F00202C3F8E020D3F89E
:10411800E03003F002030293029BD3E7304BD3F85D
:10412800E02042F00402C3F8E020D3F8E03003F0C6
:1041380004030393039BC5E7294BD3F8E02042F01F
:104148000802C3F8E020D3F8E03003F00803049332
:10415800049BB7E7224BD3F8E02042F01002C3F8E3
:10416800E020D3F8E03003F010030593059BA9E79E
:104178001B4BD3F8E02042F02002C3F8E020D3F82C
:10418800E03003F020030693069B9BE7144BD3F81B
:10419800E02042F04002C3F8E020D3F8E03003F01A
:1041A80040030793079B8DE70D4BD3F8E02042F0BF
:1041B8008002C3F8E020D3F8E03003F080030893CE
:1041C800089B7FE7064BD3F8E02042F48072C3F8DF
:1041D800E020D3F8E03003F480730993099B71E77A
:1041E80000440258704700BF0F4B1B780BB90120E1
:1041F800704710B504464FF47A700C4AB0FBF3F3DD
:104208001068B0FBF3F000F0DDF80F2C00D808B10F
:10421800012010BD002221464FF0FF3000F076F853
:10422800034B00201C6010BD5400002450000024E3
:104238005800002438B50320124D00F055F8124CF0
:1042480003F00AFF114A12499369C3F30323CB5CB5
:1042580003F01F0320FA03F30E202B60926902F08B
:104268000F028A5C02F01F02D3402360FFF7BCFFF5
:1042780010B10124204638BD0446FFF7B3FF20469D
:1042880038BD00BF500000244C00002400440258F0
:1042980030010108034A044B11681B780B44136072
:1042A800704700BF7415002454000024014B18689F
:1042B800704700BF7415002438B50446FFF7F6FFB1
:1042C8000546631C02D0044B1B781C44FFF7EEFF25
:1042D800401BA042FAD338BD54000024014B186893
:1042E800000C70470010005C06494FF6FF0C0002F6
:1042F800054BCA6800F4E06002EA0C02104303436D
:10430800CB60704700ED00E00000FA051A4BDB684F
:10431800C3F3022300B5C3F1070E03F1040CBEF189
:10432800040F28BF4FF0040EBCF1060F1AD9A3F1F1
:10433800030C4FF0FF3303FA0CF322EA03024FF0A9
:10434800FF33002803FA0EF321EA030303FA0CF300
:1043580043EA02034FEA0313DBB206DB074A1354AE
:104368005DF804FB00229446E9E700F00F00044AD8
:1043780013545DF804FB00BF00ED00E000E400E02A
:1043880014ED00E0002807DB00F01F0101234009BD
:10439800024A8B4042F82030704700BF00E100E03D
:1043A80000280CDB4309012200F01F0004492033D8
:1043B800824041F82320BFF34F8FBFF36F8F7047C0
:1043C80000E100E0431EB3F1807F01D30120704774
:1043D8004FF0E022002005494FF0F00C536107230D
:1043E80081F823C090611361704700BF00ED00E0C1
:1043F800BFF35F8F044B00215A6A22F480325A625D
:10440800C3F89410704700BF00ED00E0064B40F081
:104418000100C3F894005A6A42F480325A62BFF32A
:104428004F8FBFF36F8F704700ED00E0174A437856
:10443800C2F89830017821B3436800B5C2F89C30BF
:10444800C37A90F80CC01B0690F80FE043EA0C738F
:1044580090F80AC00B43817B43EACC4390F80DC027
:1044680043EA8C4390F809C043EA4143017A43EA9E
:104478000E4343EA0C2343EA4103C2F8A0305DF837
:1044880004FBC2F89C10C2F8A010704700ED00E0D1
:10449800704700BF08B5FFF7FBFF08BD88B110B52E
:1044A8000379044603F0FF023BB1002302210122F5
:1044B800217118462361227110BD4271FDF7B2FDCA
:1044C800F3E70120704700BF704700BF03681A6810
:1044D800910410B5044602D55A6B920418D41A6890
:1044E800910002D55A6B920000D410BD04224FF0FF
:1044F800005120462271226942F00202226159636A
:104508001A6822F08052BDE810401A6000F0A6B880
:1045180004224FF400510271026942F00102026163
:1045280059631A6822F480521A60FFF7CDFF236896
:10453800D5E700BF4379012B00F08C8002232DE9D9
:10454800F041154601220E4603714271044609687E
:10455800042939D005F0100203683069012829D0F0
:10456800D6E902052843DD6B0843716807269040A9
:104578009140964025EA0605012628434FF48045D8
:10458800D8639540186820EA050040F6FE75186063
:104598009540186820EA050000250843C0211860E6
:1045A80091401A68284622EA01021A60267165714C
:1045B800BDE8F0811F209D6B904025EA00057069D9
:1045C800904028439863CBE7D5B9FFF76FFEDFF833
:1045D8008880074604E0FFF769FEC01B012830D831
:1045E80023685B6B13EA080FF5D10120FFF764FE1F
:1045F8002368B2691A640DE0FFF758FE012820D835
:1046080023685B6B002BF7DB0120FFF755FE23685F
:10461800B2695A6405F0100240F2FF30996C90407C
:1046280021EA0001F06990400143FF20996490401D
:10463800D96C21EA0001306A90400143D96431689D
:104648008BE723690322032043F0080323612271C7
:10465800BDE8F0810220704700800020704700BF4D
:104668003649024603688B4233D01831591AB1FAD9
:1046780081F1490969BB324883423ED018308342F0
:104688003ED01830834234D0183083423BD01830A3
:1046980083423ED0183083422AD000F556708342B8
:1046A80035D028498B4231D018318B4234D018315B
:1046B8008B4234D018318B4234D018318B4234D0ED
:1046C80018318B4234D018318B4234D023F0FF009C
:1046D80011E0DBB21C491D48103BA1FB031310B4C9
:1046E8001B091B4CE15C5DF8044BC2E916017047DD
:1046F80016211848D1659065704710211348F9E7CD
:1047080016211248F6E706211248F3E70621124857
:10471800F0E710210F48EDE710210F48EAE71621CE
:104728000D48E7E700210D48E4E706210B48E1E7DB
:1047380010210A48DEE716210848DBE7100002408E
:104748004000024028040240ABAAAAAA0000024086
:1047580090010108040002400004024004040240E1
:104768000268284B284930B4284D294CAA4218BF62
:104778009A420CBF012300238A4208BF43F0010379
:104788002831A24208BF43F0010328348A4208BFF7
:1047980043F001032831A24208BF43F001038A42D3
:1047A80008BF43F00103D1B213B91A4B9A4211D191
:1047B800A1F10803184C194A0121A4FB0343184C22
:1047C8001D0902EB1313A9409B008166C0E9183448
:1047D80030BC7047A1F110031249134C1144A4FBDB
:1047E8000343A8294FEA131308D903F01F040F4AFB
:1047F80001211A44A1400E4C9300E6E708331C46F9
:10480800F5E700BF08540258305402581C540258A7
:104818004454025894540258CDCCCCCC009600167F
:1048280080580258F0FBFDBFABAAAAAA008200106C
:104838008008024070B50546FFF738FD002D00F0EE
:10484800A9802B680446904A90498B4218BF93422E
:1048580001F118010CBF012200228B4208BF42F06F
:10486800010218318B4208BF42F0010218318B4215
:1048780008BF42F0010218318B4208BF42F0010222
:1048880018318B4208BF42F0010218318B4208BF31
:1048980042F0010201F556718B4208BF42F0010255
:1048A80018318B4208BF42F0010218318B4208BF11
:1048B80042F0010218318B4208BF42F00102183160
:1048C8008B4208BF42F0010218318B4208BF42F008
:1048D800010218318B4208BF42F001021AB96C4A32
:1048E800934240F0E3800222002185F8352085F8C4
:1048F80034101A6822F001021A6005E0FFF7D6FCAE
:10490800031B052B41D82B681A68D107F6D4D5E9C3
:10491800022429692243A8691C680A4369690A4371
:10492800E96902430A435B4921402C6A22430A434E
:10493800696A042930D01A605A6922F007021143C3
:1049480059612846FFF78CFEEA6D3F2302F01F02EB
:10495800934083602846FFF703FFAB68802B6ED037
:104968006B68A86ED9B2013BD5E91842072B2160C4
:1049780050602ED90023C5E91B336B670023012241
:104988006B65184685F8352070BD202203236A65BB
:1049980085F83530012070BDD5E90B41214311431D
:1049A800AA6A1960596921F00701114341F004010D
:1049B800002CC5D000284AD1012A5FD032F002026B
:1049C800BED1E201BCD5402201236A6585F83530A5
:1049D800E0E72A68481E304B304CA24218BF9A4282
:1049E80004F114040CBF01230023A24208BF43F0C2
:1049F80001031434A24208BF43F001031434A24255
:104A080008BF43F001031434A24208BF43F0010376
:104A18001434A24208BF43F001031BB9204B9A4249
:104A280040F09E801F4A204C0A4492000123002136
:104A38008340C5E91B246B67116063609EE7002310
:104A4800A96ED5E918026B600360516092E7B0F572
:104A5800005F04D0022AB6D9032AB2D070E7032A2D
:104A68003FF66EAF01A050F822F000BFCF49000812
:104A7800CB490008CF490008854A0008B4F1C07F37
:104A88007FF45EAF9FE700BF10000240280002409D
:104A9800B80402403F8010FE085402581C540258C3
:104AA800945402583F96001640590258334A3448E5
:104AB8003449834218BF934200F128000CBF0122F9
:104AC80000228B4208BF42F001022831834208BF0E
:104AD80042F0010228308B4208BF42F0010228311F
:104AE800834208BF42F001028B4208BF42F0010234
:104AF80012B9254A93423AD100200221AA6885F8C2
:104B0800340085F83510402A1C686FF310142CD037
:104B1800A2F18002B2FA82F252099103EE69D5E954
:104B2800032010436A691043AA691043174A3043A7
:104B38002E6A1A4444EA161444EAD0000143144881
:104B4800A0FB02022846196013099B00EB65FFF7DA
:104B580087FDE96D012201F01F018A404260F9E6F4
:104B68000C4A0D4C0A44920060E71021D6E7402217
:104B780003236A6585F835300CE700BF08540258EE
:104B88001C5402583054025894540258F8ABFDA7EC
:104B9800CDCCCCCC3F82001040090240002800F068
:104BA800D3802DE9F04F90F8344083B0012C00F009
:104BB800C780012480F8344090F83540012C09D092
:104BC80000224FF4006380F834204365012003B0CD
:104BD800BDE8F08F02248C4D8C4E80F835400024BF
:104BE8008B4F44650468DFF83492B44218BFAC4276
:104BF80006F11806D0F858E00CBF01250025B4428C
:104C080008BF45F0010506F55676B44208BF45F0E1
:104C180001051836B44208BF45F001051836B442FC
:104C280008BF45F001051836B44208BF45F0010534
:104C38001836B44208BF45F001051836B44208BF1B
:104C480045F00105A6F58666BC4218BFB44206F5D4
:104C58008966C76E0CBF4FF001084FF00008B442D8
:104C680008BF45F00105A6F58666B44208BF48F0BE
:104C7800010806F58966B44208BF45F00105A6F5A6
:104C88009266B44218BF4C4545EA080C01950CBF22
:104C980001250025D0E919AB009502D0BCF1000F21
:104CA80054D0D4F8009029F00109C4F80090CAF84B
:104CB80004B03FB1D0E91C566E60009D15B9BCF137
:104CC800000F4DD0C56D4FF03F0905F01F0A09FAD6
:104CD8000AF9CEF80890D4F800E02EF4802EC4F833
:104CE80000E063608368402B27D0A160E260009BEE
:104CF80013B9B8F1000F7ED0236823F01E0343F0E8
:104D080016032360036C1BB1236843F00803236078
:104D1800036E1A68D20303D51A6842F480721A60C7
:104D28001FB13B6843F480733B602368002043F065
:104D38000103236003B0BDE8F08FA260E160D6E70D
:104D4800022003B0BDE8F08F01207047256825F0E8
:104D580001052560CAF804B017B1D0E91C566E6089
:104D68002C4DDFF8BC80444518BFAC4208F114084C
:104D78000CBF01250025444508BF45F0010508F191
:104D88001408444508BF45F0010508F114084445D6
:104D980008BF45F0010508F11408444508BF45F06F
:104DA800010508F11408444508BF45F0010515B987
:104DB800194DAC420DD1C56D05F01F08012505FA46
:104DC80008F5CEF8045063608368402B18D0A160C2
:104DD800E2602268016C22F00E02036E42F00A02C1
:104DE8002260002995D0226842F0040222601A68E5
:104DF800D10391D494E7019B002B7FF47DAFE8E7C2
:104E0800A260E160E5E700BF88000240A000024020
:104E180040000240085402589454025810000240BE
:104E28001C540258002862D038B590F83530022B4F
:104E380059D10268444B454C4549A24218BF9A4291
:104E480004F130040CBF012300238A4208BF43F059
:104E580001033031A24208BF43F0010330348A42D3
:104E680008BF43F001033031A24208BF43F00103F9
:104E780030348A4208BF43F0010301F55C71A24255
:104E880008BF43F0010304F55C748A4208BF43F08D
:104E980001033031A24208BF43F0010330348A4293
:104EA80008BF43F001033031A24208BF43F00103B9
:104EB80030348A4208BF43F001033031A24208BFB0
:104EC80043F001038A4208BF43F0010313B9214BA1
:104ED8009A420ED1042380F83530136823F0010379
:104EE8001360002038BD80234365012038BD0120B0
:104EF80070471368046E23F00E03C16D856D13604F
:104F080001F01F01136823F00103136001232268D5
:104F18008B4022F4807222606B60C36ED0E9192145
:104F2800516033B11A68D0E91C1422F480721A60F7
:104F38004C6000210122036D80F8341080F8352080
:104F4800002BCED09847CCE7100002402800024042
:104F580040000240B8040240F0B50022944B83B0F0
:104F6800856D07461E680192924B026892482C682C
:104F7800824218BF9A4200F1180029680CBF012329
:104F88000023824208BF43F001031830824208BF61
:104F980043F001031830824208BF43F00103183080
:104FA800824208BF43F001031830824208BF43F031
:104FB80001031830824208BF43F0010300F5567020
:104FC800824208BF43F001031830824208BF43F011
:104FD80001031830824208BF43F0010318308242AF
:104FE80008BF43F001031830824208BF43F00103B1
:104FF8001830824208BF43F001031830824208BFCC
:1050080043F001031BB96D4B9A4240F02F81FB6DB1
:10501800082103F01F03994021420BD01068400774
:1050280008D5106820F004001060A960796D41F07F
:105038000101796524FA03F1C80709D55169090600
:1050480006D501219940A960796D41F00201796581
:1050580004219940214207D01068800704D5A9602F
:10506800796D41F00401796510219940214200F0E1
:10507800B0801068000740F1AC80A960116811F495
:10508800802F116840F09E80C90503D4116821F073
:1050980008011160396C002900F09B803846884768
:1050A800FB6D202103F01F039940214253D03A6839
:1050B8004048414CA24218BF824204F118040CBF78
:1050C80001200020A24208BF40F001001834A2428B
:1050D80008BF40F001001834A24208BF40F00100A8
:1050E8001834A24208BF40F001001834A24208BF99
:1050F80040F001001834A24208BF40F0010004F556
:105108005674A24208BF40F001001834A24208BFFA
:1051180040F001001834A24208BF40F001001834E2
:10512800A24208BF40F001001834A24208BF40F074
:1051380001001834A24208BF40F001001834A2420E
:1051480008BF40F00100002847D11C48824244D0E3
:105158001068800744D47B6D002B70D07B6DDC0712
:105168001ED53A68042187F8351015491368A1FB44
:10517800066123F00103890A136002E01368D80767
:1051880004D5019B01338B420193F7D9002387F89B
:1051980034301368DB074CBF0323012387F835300D
:1051A800FB6C002B4BD0384603B0BDE8F0401847E5
:1051B800500000241000024028000240B8040240B9
:1051C800B5814E1B08037FF565AFB96C00297FF4E4
:1051D80065AF202199400C42BDD01068C406BAD5ED
:1051E800A96097F8351004290ED0136813F4802F9E
:1051F800136826D01D0331D5FB6B002BABD0384686
:1052080098477B6DDBB1A9E7116821F016011160A1
:10521800516921F080015161396C19B3116821F08D
:10522800080111603F22002102FA03F30122AB605A
:105238003B6D87F8341087F83520002BB3D103B0C5
:10524800F0BD13F48073D7D1116821F010011160FB
:10525800012287F8343087F83520CDE77B6C002BA6
:10526800CDD178E7B96C0029D8D1DBE7404B41486C
:10527800824218BF9A4200F114000CBF0123002398
:10528800824208BF43F001031430824208BF43F052
:1052980001031430824208BF43F0010314308242F4
:1052A80008BF43F001031430824208BF43F00103F2
:1052B80013B9314B9A42C2D1F86D0424136800F037
:1052C8001F0084400C420BD05E0709D519046C609E
:1052D80032D5DA0336D4BB6C002B7FF464AFAEE76B
:1052E800022484400C420BD09E0709D519046C6037
:1052F8002DD5DA0337D47B6C002B7FF454AF9EE7AF
:10530800082484400C429AD01B0798D513680021C2
:1053180023F00E0313600123FA6C03FA00F06860AF
:105328007B6587F8341087F83530002A87D03846EF
:1053380003B0BDE8F04010479B0603D4136823F080
:10534800040313603B6C002B7FF42DAF77E713F059
:10535800200308D11168012021F00A01116087F8A3
:10536800343087F83500FB6B002B7FF41CAF66E701
:10537800085402581C54025894540258406D7047FF
:105388000B68002B00F0ED81824A90424FF000023A
:105398002DE9F04F85B000F0F8804FF001084FF08C
:1053A800B04E42E04FEAD20C02F007050F694FF009
:1053B8000F0A00EB8C0CAD00DCF82090AF400AFA25
:1053C80005F529EA05054FF003092F4304F0030505
:1053D800CCF820705700D0F800C009FA07F9BD4092
:1053E8002CEA090C6FEA090B45EA0C0505608D6883
:1053F80005FA07FCD0F808902409CD6809EA0B09DA
:10540800944005FA07F747EA09078760476827EADB
:10541800060634434460C46804EA0B0444EA0C04F6
:10542800C460013233FA02F479D008FA02F616EAB7
:105438000309F6D04C6824F01005022DB2D05700AD
:105448004FF0030C05F1FF3AD0F800B00CFA07FC56
:1054580004F00305BAF1010F2BEA0C0B05FA07F566
:1054680045EA0B056FEA0C0B05608D6805FA07FC29
:10547800C0D9C6680BEA060545EA0C05C560E50013
:10548800CFD5454E22F003074FF00F0CD6F8F45055
:1054980007F1B04745F0020507F58067C6F8F450F4
:1054A800D6F8F45002F0030605F00205B60003959D
:1054B8000CFA06FC039DBD6825EA0C0A374DA84284
:1054C8005ED0374DA8422DD0DFF8D8C0604500F037
:1054D8004281DFF8D4C0604500F04481DFF8CCC0D9
:1054E800604500F03181DFF8C8C0604500F04181B7
:1054F800DFF8C0C0604500F04381DFF8BCC06045FC
:1055080000F04581DFF8B4C060450CBF4FF0090CCE
:105518004FF00A0C0CFA06F64AEA060508E005B050
:10552800BDE8F08F4FF0020C0CFA06F64AEA0605C1
:10553800BD606FEA0906DEF88050E70354BF3540C6
:1055480049EA0505A703CEF88050DEF8845054BF19
:10555800354049EA0505E702CEF88450DEF80050E8
:1055680054BF354049EA0505A402CEF80050DEF8DC
:10557800045054BF354049EA0505CEF8045050E7B9
:1055880008FA06F64AEA0605D2E7DFF80CB04FF04B
:10559800B0467BE00000025800440258000402585C
:1055A80000080258000C0258001002580014025853
:1055B80000180258001C0258002002580024025803
:1055C8000CF1FF374FEA420ED0F800A004F00308B0
:1055D8000197032708FA0EF807FA0EFC2AEA0C0AC4
:1055E8006FEA0C0C48EA0A08C0F800808F6807FACE
:1055F8000EF8019F012F40F28180C56805EA0C056D
:1056080045EA0805C560E5003BD5DBF8F45022F013
:10561800030C0F2745F002050CF1B04CCBF8F45001
:105628000CF5806CDBF8F45005F002050395039D3A
:1056380002F00305DCF808E0AD0007FA05F5E7031A
:105648002EEA0505CCF808506FEA090CD6F8805008
:1056580077D405EA0C05A703C6F88050D6F884501D
:105668006CD40CEA0505E702C6F88450356862D4A4
:105678000CEA0505A7023560756859D40CEA0505DA
:105688007560013233FA02F43FF449AF012404FA99
:1056980002F513EA0509F4D04C6824F0100CBCF1AB
:1056A800020F8DD102F0070C0F694FEAD20E4FEAB4
:1056B8008C0C00EB8E0E07FA0CF90F27DEF8208011
:1056C80007FA0CFC032728EA0C0849EA0808CEF870
:1056D80020804FEA420ED0F8009004F0030807FA41
:1056E8000EFC08FA0EF829EA0C096FEA0C0C48EAD5
:1056F8000908C0F800808F6807FA0EF8D0F80890FB
:105708002409CF6809EA0C09944007FA0EFE4EEA0C
:10571800090EC0F808E0D0F804E02EEA05052C438D
:105728004460C46804EA0C0444EA0804C460A8E7B6
:1057380049EA0505A4E749EA05059BE749EA05059D
:1057480091E749EA050586E74FF0050C0CFA06F6DD
:105758004AEA0605ECE6032505FA06F64AEA0605CE
:10576800E6E670474FF0040C0CFA06F64AEA06051E
:10577800DEE64FF0060C0CFA06F64AEA0605D7E60E
:105788004FF0070C0CFA06F64AEA0605D0E64FF089
:10579800080C0CFA06F64AEA0605C9E6002900F0E4
:1057A8000881894B98422DE9F04F00F09A80002338
:1057B8004FF00F094FF0030A4FF0B04601229A400C
:1057C80012EA010E77D023F0030503F003047F4F9C
:1057D80005F1B045E400B84209FA04F8D5F808C460
:1057E80005F5806508EA0C0C27D0794FB8426ED0D1
:1057F800784FB84270D0784FB84263D0DFF8E0B144
:10580800584500F0D180DFF8DCB1584500F0D2806F
:10581800DFF8D4B1584500F0C280DFF8D0B1584560
:1058280000F0CD80DFF8C8B158450CBF4FF0090B28
:105838004FF00A0B0BFA04F402E0012707FA04F40C
:10584800A44517D1AC6824EA0804AC60D6F88040B7
:1058580024EA0E04C6F88040D6F8844024EA0E04F0
:10586800C6F88440346824EA0E043460746824EA74
:105878000E0474605D0004684FEAD30C0AFA05F55B
:1058880000EB8C0C2C43046003F00704DCF820E0E8
:10589800A40009FA04F42EEA0404CCF82040846831
:1058A80024EA05048460446824EA02024260C2686B
:1058B80022EA0502C260013331FA03F27FF47EAFB7
:1058C800BDE8F08F4FF0040B0BFA04F4B8E74FF083
:1058D800020B0BFA04F4B3E74FF0030B0BFA04F4D2
:1058E800AEE700224FF0010C3C4F0F254FF0B046B9
:1058F8004FF0030E02F003030CFA02F422F003083F
:10590800DB0011EA0409B84405FA03F341D0D8F8DA
:1059180008A013EA0A0F19D1D8F808A02AEA030345
:10592800C8F80830D6F8803023EA0903C6F8803072
:10593800D6F8843023EA0903C6F88430336823EAAA
:1059480009033360736823EA090373604FEA420866
:1059580003684FEAD2090EFA08F800EB890943EA0E
:105968000803036002F00703D9F820A09B0005FA9A
:1059780003F32AEA0303C9F82030836823EA0803FB
:105988008360436823EA04034360C36823EA080387
:10599800C360013231FA02F3ACD1BDE8F08F4FF0A9
:1059A800070B0BFA04F44BE74FF0050B0BFA04F462
:1059B80046E770474FF0060B0BFA04F440E74FF048
:1059C800080B0BFA04F43BE70000025800040258E5
:1059D80000080258000C0258001002580004005831
:1059E8000014025800180258001C025800200258DF
:1059F800002402580369194214BF0120002070478F
:105A080002B90904816170472DE9F04F056885B036
:105A18000446284605F030F8012802D005B0BDE854
:105A2800F08F206804F0D8FF0028F7D0206804F031
:105A3800D3FF10F4001F206802D04FF40013436115
:105A480004F0CAFF10F4801F206802D04FF48013BE
:105A5800436104F0C1FF10F0806F206802D04FF05E
:105A68008063436104F0B8FF10F0020F206830D162
:105A780004F0B2FF870000F10781206804F0ACFF52
:105A8800C60100F1C380206804F0A6FF000700F1FA
:105A9800B280206804F0A0FF10F0007F20681BD1BE
:105AA80004F09AFFC306B9D52568AB6923F0100343
:105AB800AB612E6A06F4F011C6F30A17B1F5802F10
:105AC80002D1002F40F0DA81AB6943F01003AB61DB
